:020000040800F2
:1000000080510020E90200087F340008AD2E00086E
:100010007D340008F9050008693E00080000000072
:10002000000000000000000000000000290200089D
:10003000F10A000800000000850200084D370008A2
:100040000303000803030008030300080303000878
:100050000303000803030008030300080303000868
:100060000303000803030008030300080303000858
:1000700003030008290900083509000803030008E4
:1000800041090008030300080303000803030008F4
:1000900051060008030300080303000803030008D7
:1000A00003030008253800080303000803030008C1
:1000B0000303000803030008030300080303000808
:1000C00003030008030300080303000803030008F8
:1000D00003030008C13D0008F13D00085D3E000833
:1000E00003030008030300080303000803030008D8
:1000F00003030008030300080303000803030008C8
:1001000003030008030300080303000803030008B7
:10011000F93800080303000803030008030300087C
:1001200003030008030300084D0900080303000847
:1001300003030008000000000000000003030008A3
:100140009D060008030300080303000803030008DA
:10015000030300080303000859090008030300080B
:100160000303000803030008030300080303000857
:100170000303000803030008000000000000000063
:10018000030300080303000800F002F800F03CF845
:100190000AA090E8000C82448344AAF10107DA45E2
:1001A00001D100F031F8AFF2090EBAE80F0013F0F8
:1001B000010F18BFFB1A43F001031847444C00001D
:1001C000644C0000103A24BF78C878C1FAD85207AE
:1001D00024BF30C830C144BF04680C6070470000C1
:1001E0000023002400250026103A28BF78C1FBD840
:1001F000520728BF30C148BF0B6070471FB504F0DD
:1002000053FD1FBD10B510BD00F0A6F91146FFF754
:10021000F5FF03F055FE00F0C4F903B4FFF7F2FF59
:1002200003BC00F0CBF900002C4B19680868B0E85B
:10023000F04F80F30988BFF36F8F4FF0000080F319
:10024000118870470000000008480068006880F3CB
:1002500008884FF0000080F3148862B661B6BFF3DF
:100260004F8FBFF36F8F00DF00BF00BF08ED00E0CE
:10027000DFF80C00016841F470010160704700BFB5
:1002800088ED00E0EFF30980BFF36F8F134B1A681E
:100290001EF0100F08BF20ED108A20E9F04F10600B
:1002A00009B44FF0500080F31188BFF34F8FBFF3B4
:1002B0006F8F04F031FB4FF0000080F3118809BC10
:1002C00019680868B0E8F04F1EF0100F08BFB0ECD6
:1002D000108A80F30988BFF36F8F704730000020C9
:1002E000EFF3058070470000094880470948004740
:1002F000FEE7FEE7FEE7FEE7FEE7FEE7FEE7FEE7D6
:10030000FEE7FEE704480549054A064B7047000032
:100310001538000889010008804B0020805100201A
:10032000804D0020804D002053EA020C00F06980CF
:100330002DE9F04B4FF00006002B1FBFB3FA83F5F9
:1003400003FA05F424FA05F65E4012BF1643B2FA2A
:1003500082F502FA05F4C5F120051EBF22FA05FC5C
:1003600044EA0C04203556EA044C4FEA144418BF02
:10037000641C4FF000084FF00009904271EB030C31
:1003800039D3002919BFB1FA81F701FA07F6B0FA9B
:1003900080F700FA07F6C7F120071EBF20FA07FC16
:1003A00046EA0C062037B6FBF4FCA7EB0507103F26
:1003B00007F01F0BCBF120060CFA0BFB2CFA06F60C
:1003C00044BFB3460026202FA4BF5E464FF0000B6B
:1003D0005BEA060C08BF4FF0010B19EB0B09ABFBF6
:1003E000027C48EB0608C01B06FB02CC0BFB03CCCF
:1003F00071EB0C01C1E70B46024641464846BDE899
:10040000F08B13B54FF000004FF00001AFF3008008
:10041000BDE81C407047032A40F2308010F0030C06
:1004200000F0158011F8013BBCF1020F624498BF47
:1004300011F801CB00F8013B38BF11F8013BA2F1E4
:10044000040298BF00F801CB38BF00F8013B11F05F
:10045000030300F02580083AC0F0088051F8043BFF
:10046000083A51F804CBA0E80810F5E7121D5CBF6C
:1004700051F8043B40F8043BAFF30080D20724BF9F
:1004800011F8013B11F801CB48BF11F8012B24BF33
:1004900000F8013B00F801CB48BF00F8012B704782
:1004A00010B5203AC0F00B80B1E81850203AA0E80F
:1004B0001850B1E81850A0E81850BFF4F5AF5FEA43
:1004C000027C24BFB1E81850A0E8185044BF18C9F6
:1004D00018C0BDE810405FEA827C24BF51F8043B9D
:1004E00040F8043B08BF7047D20728BF31F8023BF1
:1004F00048BF11F8012B28BF20F8023B48BF00F885
:10050000012B70474FF0000200B513469446964603
:10051000203922BFA0E80C50A0E80C50B1F1200116
:10052000BFF4F7AF090728BFA0E80C5048BF0CC0C4
:100530005DF804EB890028BF40F8042B08BF704722
:1005400048BF20F8022B11F0804F18BF00F8012B94
:100550007047704770477047754600F02BF8AE46FD
:1005600005006946534620F00700854618B020B5BF
:10057000FFF7C8FEBDE820404FF000064FF000072F
:100580004FF000084FF0000B21F00701AC46ACE83B
:10059000C009ACE8C009ACE8C009ACE8C0098D46A8
:1005A000704710B50446AFF300802046BDE8104008
:1005B000FFF733BE004870471C4B0020014918204C
:1005C000ABBEFEE726000200704700000848016845
:1005D000CA6842F02002CA600068C16841F0100198
:1005E000C1604FF480720349014802F0A5BB0000CE
:1005F000CC03002098470020FEE7000030B5134AE6
:10060000C1F30723CCB202F10801092808D2DFE8C0
:1006100000F00705080B0E1114171A001370547020
:1006200030BD9370D47030BD1371547130BD93716F
:10063000D47130BD0B704C7030BD8B70CC7030BD40
:100640000B714C7130BD8B71CC7130BD98000020A6
:10065000014800F0BCBC00001803002000B587B0C2
:1006600000210291039100900821A0F5807004916F
:10067000FF3806D0012801D0232809D106AB054A4E
:1006800002E0044A06AB08326946034800F036FB34
:1006900007B000BD9800002018030020014800F0BA
:1006A00096BC00004003002000B58BB00020012163
:1006B000CDE9060108910090019002900390059009
:1006C000049069460C4800F087FB0B4800F062FF7D
:1006D0000221094800F000FB0E20099005906946B0
:1006E000064800F079FB054800F054FF022103485A
:1006F00000F0F2FA0BB000BD180300204003002008
:1007000070B50E4D00242DED028B9FED0D8ADFEDAF
:100710000D8A00BF04EBC40005EBC000F0EE480AF0
:10072000B0EE680A084A002102F02EFF641CE4B211
:10073000042CEFD3BDEC028B70BD000038440020C8
:1007400000007A4600007A45984D000870B54D4883
:100750004D4D00242DED068BB0EE40AA84B0B0EED6
:10076000619A90ED000AF0EE419A8DED000A90ED4D
:10077000010AF0EE60AA8DED010A90ED020A8DEDFE
:10078000020A9FED428ADFED428A00BF04EBC400FB
:1007900005EBC000F0EE480AB0EE680A6A46002198
:1007A00002F0F2FE641CE4B2042CEFD3394CF0EEFC
:1007B0004A0AB4F9040000EE100A3348B8EEC00A41
:1007C00002F05EFEB4F92800F0EE6A0A00EE100AAC
:1007D0002D48B8EEC00A483002F052FEB4F94C0081
:1007E000F0EE690A00EE100A2748B8EEC00A903011
:1007F00002F046FEB4F97000F0EE490A00EE100A6D
:100800002148B8EEC00AD83002F03AFE5FF0000688
:1008100006EBC60004EB8000807A502801D900F076
:100820003BF8761CF6B2042EF2D395ED080ABDEE25
:10083000C00A10EE100A01B20120FFF7DFFE95EDAD
:100840001A0ABDEEC00A10EE100A01B20220FFF72C
:10085000D5FE95ED2C0ABDEEC00A10EE100A01B2CD
:100860000320FFF7CBFE95ED3E0ABDEEC00A10EE69
:10087000100A01B20420FFF7C1FE04B0BDEC068BE4
:1008800070BD0000FC4900203844002000007A467A
:1008900000007A455845002010B500210120FFF7DF
:1008A000ADFE00210220FFF7A9FE00210320FFF783
:1008B000A5FE00210420FFF7A1FE084802F092FEE9
:1008C0000648483002F08EFE0448903002F08AFE5E
:1008D0000248BDE81040D83002F084BE3844002001
:1008E00010480188A1F5B671B1F5A56F17D84288F7
:1008F00040F294618A4212D84FF4B6739A420ED3F2
:1009000082888A420BD89A4209D3C2888A4206D882
:100910009A4204D3017A11B1407A002801D102F041
:10092000A3BE704738490020014800F0C1BE000056
:1009300020050020014800F0BBBE0000A0060020FA
:10094000014800F0B5BE000040060020014800F05C
:10095000AFBE000080050020014800F0A9BE0000E5
:10096000E005002001681823CAB2103AB2FBF3F286
:10097000054B6FF30901032A9B5CC36500D9091D70
:100980008165084670470000784D000810B50146A3
:1009900000208B698A6A4FF0C07453B1B3F5005FD1
:1009A00015D072B1012A0CD0022A0AD0032A09D12B
:1009B00004E01AB1012A06D0022A03D1C96AC9018A
:1009C00000D5012010BDC96AA142FAD010BD002A8D
:1009D000F7D0012AF2D0022AF3D0032AF3D010BDB7
:1009E00030B50468256825F48025256004686360B7
:1009F0008368402B036803D099600068C26030BDF3
:100A00009A600068C16030BD10B504006DD001F07F
:100A1000C7F8364988622088C0F30A0021F8040F1D
:100A20006078A278C00840EA4210C0F30A0048800B
:100A3000A078E278800940EA8200227940EA8220A8
:100A4000C0F30A0021F8040C20796279400840EADA
:100A5000C210C0F30A0021F8020C6079C0F3011043
:100A60004871607980090871E088C8802089088110
:100A700060894881207B0873607B4873E089C88166
:100A800000F001020A74C0F340024A74C0F380020D
:100A90008A74C0F3C002CA74C0F300120A75C0F3AE
:100AA00040124A75C0F380128A75C0F3C012CA752D
:100AB000C0F300220A76C0F340224A76C0F38022B7
:100AC0008A76C0F3C022CA76C0F300320A77C0F338
:100AD00040324A77C0F380328A77C00BC877208AC9
:100AE0000884BDE81040FFF7FBBE10BD3849002068
:100AF000704772B6FEE700001FB51648017F012956
:100B00000BD0BDE81F409FED140AF0EE401AB0EE86
:100B1000401AF0EE400AFFF719BE90ED000A0323D9
:100B20008DED000A90ED010A6A468DED010A90ED07
:100B3000020A0A488DED020A0121B0F9040003906F
:100B4000184603F063FD012303AA1946022003F0AF
:100B50005DFD1FBDFC49002000000000584500203D
:100B60000548DFED060A9FED061AB0EE080AA0EC74
:100B7000030A80EC030A7047FC4900206F12033B14
:100B80000000000070B5A2B00024ADF8804020A99C
:100B9000684603F027FA314913285CD009DC102895
:100BA0000CD0112842D0122801D10120087722B0A0
:100BB00070BD1428FBD101F0E5F8F8E79DF80A00B4
:100BC0009DF80D209DF80F5040EA02639DF80C003F
:100BD0009DF80B20000440EA022003439DF80E001C
:100BE0009DF811209DF8136040EA02629DF8100004
:100BF0009DF80440000440EA052002439DF81200DD
:100C00009DF8155040EA05609DF814502D0445EA02
:100C100006252843012C05D0022CC8D1CB60C1E9A0
:100C20000420C4E70B60C1E90120C0E79DF80A0079
:100C30009DF80D209DF80B3040EA02609DF80C20D5
:100C4000120442EA0322104300EE100AB8EEC00A72
:100C500081ED060AABE70C77A9E70000FC4900200C
:100C600004480021016141611830A0F10C010860C5
:100C7000002070476449002008480168CA6842F0B3
:100C80002002CA600068C16841F01001C1604FF4E1
:100C900080720349014802F04FB80000540400205C
:100CA0001C4A002070B50B4D04460E46B5F90000F5
:100CB00084420ED00121204603F0E2FC022003F022
:100CC0002EF90221304603F0DBFC022003F027F965
:100CD0002C8070BDB800002090F82020012A07D099
:100CE000022A05D0416A41F4802141620120704707
:100CF000006842690A43426100207047F0B590F8ED
:100D000020500468A468012D05D0022D03D0416A4B
:100D100041F480215DE014F0406F01D1E50055D52C
:100D2000C4F30164022C03D9416A41F4000150E08C
:100D30000125A5401D608D684FF4C0739DB1CE683C
:100D400035434E6845EAC605066803EB0417F551BE
:100D50004FF4C275076805EB04150E697E51097DD5
:100D6000012905D009E00E88CD6845EA4655EBE734
:100D700001684E5946F480764E511179D5795679ED
:100D800041EA056195792D0445EA062529434FF48A
:100D9000C676056806EB0416A9511178D57841EAA4
:100DA0000561957852782D0445EA022211434FF4EB
:100DB000C475026805EB04155151006803EB04117A
:100DC000425842F0010242500020F0BD416A41F415
:100DD000001141620120F0BD10B590F82020012AD9
:100DE00007D0022A05D0416A41F4802141620120E6
:100DF00010BD3B48D0F8002242F00102C0F80022AA
:100E0000D0F8002222F47C52C0F80022D0F8002250
:100E10004B6A42EA0322C0F800220A7D02F01F0357
:100E200001229A40D0F81C329343C0F81C32CB699F
:100E3000B3B9D0F80C329343C0F80C328C894B68AC
:100E400064F31F434C6900EBC404C4F840320C89BE
:100E50000B6864F31F434C6900EBC404C4F84432CC
:100E6000CB69012B16D1D0F80C321343C0F80C32E9
:100E70000C884B6864F31F434C6900EBC404C4F84E
:100E800040320C89CB6864F31F434C6900EBC40407
:100E9000C4F844328B69002BD0F804320ED01343CF
:100EA000C0F804320B69002BD0F8143208D0134379
:100EB000C0F81432096A012904D008E09343EFE72F
:100EC0009343F5E7D0F81C121143C0F81C12D0F878
:100ED000001221F00101C0F80012002010BD000036
:100EE00000640040704730B590F82040012C05D0D8
:100EF000022C03D0416A41F480215DE0046800299E
:100F000055D02469A40754D04FF4D874056804EB75
:100F100001142D5915F00405956005682D594ED022
:100F2000ED08556005682C5904F00204D4604FF4B4
:100F3000DA74056804EB01142D5905F00F051561ED
:100F400005682D59C5F30725956105682C59240CB2
:100F500054614FF4DC72046802EB0112A4581C7057
:100F60000468A458240A5C700468A458240C9C707B
:100F70000468A258120EDA704FF4DE72046802EBB5
:100F80000112A4581C710468A458240A5C710468F6
:100F9000A458240C9C710468A258120EDA710068DF
:100FA00081B1016941F020010161002030BDE46898
:100FB000A8E7416A41F400114162012030BD6D0D86
:100FC0001560AFE7C16841F02001C160EDE72DE990
:100FD000F05F0546006800244669D0F804908768F1
:100FE000D0F80CB0D0F810A0D0F81880F10748D095
:100FF000F90714D001218160B80703D5284600F015
:10100000F6FA0CE0780702D54FF4006407E03807E1
:1010100002D54FF4805402E0284600F0E7FAF805C4
:1010200016D529684FF480708860B80503D5284626
:1010300000F0DFFA0CE0780502D544F4005407E034
:10104000380502D544F4804402E0284600F0D0FA86
:10105000F80316D529684FF480308860B80303D5AB
:10106000284600F0C8FA0CE0780302D544F40044A6
:1010700007E0380302D544F4803402E0284600F04B
:10108000B9FA300707D55FEACB6004D5296810208C
:1010900044F40074C86070074FF0080707D55FEA92
:1010A0000B7004D52868C760284600F09DF9B0078A
:1010B00006D52868C068800702D0284600F096F957
:1010C000700607D55FEACA6004D52968102044F489
:1010D00080640861B00607D55FEA0A7004D5286805
:1010E0000761284600F052FAF00606D52868006924
:1010F000800702D0284600F04AFAB00308D55FEA1C
:10110000C96005D5296810204860284600F040FADB
:10111000F00307D55FEA097004D5286847602846C0
:1011200000F06AFA300446D55FEA497040D5F00510
:1011300004D55FEAC87001D044F00104B00504D5BD
:101140005FEA887001D544F00204700504D55FEAB7
:10115000487001D544F00404300529D518F0700F0B
:1011600026D008F07000402815D006DC102809D0E1
:1011700020280AD0302816D10AE050280ED0602846
:1011800011D10EE044F008040DE044F010040AE030
:1011900044F0200407E044F0400404E044F08004FC
:1011A00001E044F480742868816921F07001816154
:1011B000296804204860002C05D0686A20436862D2
:1011C0002846FFF78FFEBDE8F09F70B5040003D0FE
:1011D00094F8200010B104E0012070BD204600F01A
:1011E00081F82068016841F00101016000F0D8FC3D
:1011F0000546052604E000F0D3FC401B0A2811D860
:1012000020684068C007F6D02068016821F002011C
:10121000016000F0C5FC05460BE000F0C1FC401B7E
:101220000A2806D9606A40F40030606284F82060C1
:10123000D2E7206840688007EFD4207E012820682C
:1012400001683DD021F080010160607E01282068A6
:10125000016838D021F040010160A07E012820689B
:10126000016833D021F020010160E07E0128206870
:1012700001682ED041F010010160207F0128206814
:10128000016829D021F008010160607F01282068F1
:10129000016824D021F004010160D4E9020108436F
:1012A000D4E90412114308436168491E08432168C8
:1012B000C86100206062012084F82000002070BD19
:1012C00041F08001C0E741F04001C5E741F0200155
:1012D000CAE721F01001CFE741F00801D4E741F05F
:1012E0000401D9E72DE9F04387B00446142168468C
:1012F000FFF708F9384B3948DFF8D8801968D4F877
:1013000000C0364A022503260927DFF8D4901030A2
:101310000024491CC44524D11960012907D1016862
:1013200041F000710160006800F0007005901068E5
:1013300040F002001060106802AB00F0020005905F
:101340004FF44070CDE9000583E8D0006946484677
:1013500000F020FB00220621142000F0E1FC142004
:1013600033E0DFF88080C44531D1D0F800C04CF0C4
:10137000806CC0F800C0D0F800C001290CF0806C6F
:10138000CDF814C0196007D1016841F00071016007
:10139000006800F000700590106840F002001060D6
:1013A000106802AB00F0020005904FF44050CDE908
:1013B000000583E8D0006946484600F0EBFA0022B9
:1013C0000621402000F0ACFC402000F09BFC07B060
:1013D000BDE8F083006400401C000020303802406B
:1013E00000040240006800407047000070B5634987
:1013F0008AB0884207AB6A464FF0000174D15F485B
:10140000FFF771FD0098411ECAB25D49A0F5007357
:10141000013B34D0A0F50073023B30D0A0F500733F
:10142000033B2CD0B0F5017F29D0A0F50073053B1C
:1014300028D0A0F50073063B24D0A0F50073073B2D
:1014400020D0B0F5027F1DD002EBC20201EB82007A
:1014500031F8223043808388C380BDF81C305BBAEA
:1014600021F82230BDF81E1049BA8180BDF8201045
:1014700049BA01819DF8221081720AB070BD02EB59
:10148000C2026AE002EBC20201EB820041F2D374B5
:101490008388C380BDF81E3041F6FF065BBA8380A7
:1014A00031F822304380BDF81C305BBA21F822307D
:1014B000BDF820305BBA03819DF82230837231F988
:1014C0002230E51A42F2D074B54202D2C3F5FA6373
:1014D00000E0E31A836131F92230C3F5FA65002D8B
:1014E00003D4C3F5FA6301E02CE0E31A038231F977
:1014F0002230B0F902401B1B41F20404A34202DD7A
:1015000083895B1E05E041F20404E34202DA838929
:101510005B1C838131F92230B0F90C4003EB44337A
:10152000C4691B1B436190F82030002BA5D1012317
:1015300080F820304369C36131F92210C1F5FA61A6
:10154000C1819AE70F48FFF7CEFC002895D100989B
:101550000D49401EC0B200EBC00201EB820083883F
:10156000C380BDF81E305BBA838031F822304380DF
:10157000BDF81C305BBA21F8223077E71803002051
:1015800058450020400300207846002070477047EF
:101590007047000070B5044690F82000012804D080
:1015A000606A40F40020606218E0022084F82000A5
:1015B0002068016821F00101016000F0F1FA0546A0
:1015C0000EE000BF00F0ECFA401B0A2808D9606A60
:1015D00040F400306062052084F82000012070BDD6
:1015E00020684068C007EDD1606270BD70477047E9
:1015F000704770477047704770472DE9F0410446C7
:10160000876D00F0CDFA064694F8350000250228D3
:1016100006D08020606584F834500120BDE8F08158
:101620002068016821F0160101602068416921F0FD
:1016300080014161206C08B9A06C20B1206801686C
:1016400021F0080101602068016821F001010160BA
:101650000CE000F0A5FA801B052807D92020606562
:10166000032084F8350084F83450D7E720680068F8
:10167000C007EED194F85C103F208840B86001208C
:1016800084F8350084F834500020C7E790F835100E
:10169000022903D08021416501207047052180F88F
:1016A00035100068016821F00101016000207047D9
:1016B0002DE9F84304464FF00009CDF80090634847
:1016C0004FF41651A56D0068B0FBF1F72E6894F841
:1016D0005C10082000FA01F131420FD021680A683D
:1016E00052070BD50A6822F004020A6094F85C10D5
:1016F0008840A860606D40F00100606594F85C105F
:101700004FF0010808FA01F0304208D02168496919
:10171000090604D5A860606D40F00200606594F889
:101720005C1004208840304208D02168096889078D
:1017300004D5A860606D40F00400606594F85C100A
:1017400010208840304218D021680968090714D554
:10175000A86020680168490304D50068000308D523
:10176000A16C07E00168C90503D4016821F00801F4
:101770000160216C09B12046884794F85C10202054
:101780008840304231D021680968C9062DD5A8604B
:1017900094F8350005282068016806D0490347D52C
:1017A000006800031DD4616C1CE021F0160101608B
:1017B0002068416921F080014161206C08B9A06C6A
:1017C00020B12068016821F00801016094F85C10E4
:1017D0003F208840A86084F8358084F83490216DDB
:1017E0001FE0E16B09B120468847606D00282BD0CF
:1017F000606DC00714D0052084F8350020680168AA
:1018000021F0010101600098401C0090B84203D80B
:1018100020680068C007F6D184F8358084F83490D9
:10182000E16C002910D001B02046BDE8F043084724
:101830000168C905D5D4016821F01001016084F860
:10184000358084F83490CCE7BDE8F8832C00002084
:101850002DE9F041044600F0A3F906465CB10220F0
:1018600084F83500002584F834502068016821F0A0
:10187000010101600DE00120BDE8F08100F090F968
:10188000801B052805D920206065032084F83500D9
:10189000F2E720680068C007F0D12268116820488C
:1018A0000140D4E901031843D4E903363343184314
:1018B00063691843A3691843E3691843236A18430B
:1018C0000843616A042903D1D4E90B13194308437F
:1018D000106020684069666A20F0070130460E43B8
:1018E000012704280CD1A06A0643E06A40B12046D3
:1018F000FFF74CF820B14020606584F83570BAE7F6
:10190000206846612046FFF72DF894F85C203F21BF
:1019100091408160656584F835700020ACE7000077
:101920003F8010F02DE9F0410446866D90F83400B8
:10193000002501280DD0012084F8340094F835707A
:101940000020012F07D084F8340002252846BDE886
:10195000F0810220FBE7022784F83570606520469D
:10196000FFF73EF894F85C103F208840B060206894
:10197000016841F016010160206C20B12068016807
:1019800041F0080101602068016841F00101016037
:10199000DCE700002DE9F84FDFF8BCA100220125AB
:1019A0000AF1040B03264FF00F090BF1040E00BFE0
:1019B0000B6805FA02F42340A34270D10F7907F0B7
:1019C0000307012F01D0022F16D187684FEA420882
:1019D00006FA08FC27EA0C07D1F80CC00CFA08FC40
:1019E0004CEA070CC0F808C04768A7430C79C4F359
:1019F000001494403C4344600C79E443A4070AD0AB
:101A0000C4684FEA420C06FA0CF7BC438F6807FA29
:101A10000CF72743C7600C7904F00304022C12D1A1
:101A2000D40800EB840CDCF820405707FF0E09FABD
:101A300007F824EA0804D1F8108008FA07F848EA01
:101A40000408CCF8208004684FEA420C06FA0CF730
:101A5000BC430F7907F0030707FA0CF72743076029
:101A60004C6814F4403F70D03C4C276847F48047E2
:101A70002760246822F0030704F480440094384C63
:101A800007EB040CDCF8084897074FEA177809FAC7
:101A900008F7BC43334FB84202D1002724E054E09A
:101AA000314FB84201D101271EE0304FB84201D179
:101AB000022719E02E4FB84201D1032714E02D4F21
:101AC000B84201D104270FE02B4FB84201D10527BE
:101AD0000AE02A4FB84201D1062705E0284FB84254
:101AE00001D1072700E0082707FA08F72743CCF8B9
:101AF0000878DAF800405746D1F804C09C435FEA02
:101B0000CC3C00D51C433C60DBF800405F46D1F87C
:101B100004C09C435FEA8C3C00D51C433C60DEF86B
:101B200000407746D1F804C09C435FEACC2C00D536
:101B30001C433C60084F0C373C68D1F804C09C4300
:101B40005FEA8C2C00D51C433C60521C102AFFF429
:101B50002FAFBDE8F88F0000003C01404438024040
:101B60000030014000000240000402400008024032
:101B7000000C024000100240001402400018024015
:101B8000001C0240426921EA02030A4043EA024182
:101B9000816170470AB1816170470904FBE7000069
:101BA00001488068704700002000002070B50400E4
:101BB00011D021684CF6CC400860216845F25550A0
:101BC0000860D4E9000141602168A0688860FFF7DF
:101BD000E7FF05460DE0012070BD00BFFFF7E0FF05
:101BE000401B312805D92068C068800701D0032038
:101BF00070BD2068C0688007F0D121684AF6AA202D
:101C00000860002070BD00684AF6AA21016000202B
:101C10007047000002488168027811448160704773
:101C2000200000200B4810B5016841F400710160EC
:101C3000016841F480610160016841F480710160D4
:101C4000032000F08DF80F2000F006F800F03EF8B9
:101C5000002010BD003C024010B5014688B00022B3
:101C6000192000F05DF8192000F04CF8134800240A
:101C7000016841F001010160006805A900F0010060
:101C80000690684600F02AF900F058F90C49400027
:101C9000B0FBF1F10C480B4A491E026040F2E732FA
:101CA000C0E90324C0E9011400F0D4FB10B1012005
:101CB00008B010BD044800F0FBFBF9E744380240CF
:101CC00040420F0000000140000700200C4882B095
:101CD000016841F480410160006800F48040009098
:101CE0000748001F016841F0805101600068002230
:101CF00000F0805000900F21901E02B000F010B84C
:101D000044380240002809DB00F01F020121914005
:101D10004009800000F1E020C0F800117047000089
:101D2000F0B40E4B1B680C46C3F30223C3F1070546
:101D3000042D00D90425191D072901D2002300E034
:101D4000DB1E012606FA05F1491E214099409E40FE
:101D5000761E16403143F0BC02F087B80CED00E06F
:101D6000064900F0070208684FF6FF03184040EAF2
:101D70000220034A10430860704700000CED00E0A9
:101D80000000FA05BFF34F8F05480168054A01F4CA
:101D9000E06111430160BFF34F8F00BFFDE700001A
:101DA0000CED00E00400FA052DE9F0470E460500B1
:101DB00065D0DFF81481D8F80000F7B200F0070012
:101DC000B04207D288F80070D8F8000000F0070091
:101DD000B04254D128683D4C810712D5400703D545
:101DE000206840F4E05020602878000703D5206880
:101DF00040F4604020602068A96820F0F0000843AB
:101E000020602878C0072DD030496868083901283B
:101E100012D0022813D0032811D00968890700299D
:101E20002DDA216821F0030101432160FFF7B8FE9C
:101E3000814641F2883A0EE009688903EFE70968B4
:101E40008901ECE7FFF7ACFEA0EB0901514502D98F
:101E50000320BDE8F0872068696800F00C00B0EB53
:101E6000810FEFD1D8F80010404601F00701B142D0
:101E700007D90770006800F00700B04201D00120C8
:101E8000E7E72878400705D52068E96820F4E050A6
:101E9000084320602878000706D52068296920F4C7
:101EA000604040EAC100206000F058F82168084A0C
:101EB000C1F30311515CC840064908600648006838
:101EC000FFF7CAFE0020C4E7003C02400838024089
:101ED000804D00082C000020240000200F2202600A
:101EE0000C4A136803F003034360136803F0F00324
:101EF0008360136803F4E053C36012684FF4E05347
:101F000003EAD20202610448006800F0070008609A
:101F10007047000008380240003C02400448054970
:101F200000680968044AC1F38221515CC8407047C7
:101F30002C00002008380240904D00080448054954
:101F400000680968044AC1F34231515CC8407047D7
:101F50002C00002008380240904D0008154810B5AC
:101F6000006810F00C02144813D01449042A0FD052
:101F7000082A0ED10F4C241F2268236802F03F026A
:101F80005B0207D52068C0F38810A0FB010106E0C2
:101F9000084610BD2168C1F38811A1FB0001002390
:101FA000FEF7C2F92168C1F30141491C4900B0FBA9
:101FB000F1F010BD083802400024F400001BB70007
:101FC0002DE9F84F04006ED02078DFF84C93C0075D
:101FD000A9F104054AD009F104000168C1F38101A7
:101FE000012908D00068C0F3810002280AD1D9F87D
:101FF0000000400206D52868800337D560680028B5
:10200000E1D033E06068B0F5803F10D0B0F5A02F8C
:10201000286810D020F480302860286820F48020C0
:1020200028606068A8B1FFF7BBFD06460DE0286890
:1020300040F48030F4E740F480202860F7E700BFE8
:10204000FFF7AEFD801B642873D828688003F7D59E
:102050000CE0FFF7A5FD064605E000BFFFF7A0FD79
:10206000801B6428F0D828688003F7D42078DFF834
:10207000AC8280074FF0000A3ED5A748001D0168DA
:1020800011F00C0F08D00068C0F3810002280BD1BA
:10209000D9F80000400207D42868800716D5E06808
:1020A000012800D112E033E1E068B8B10120C8F89E
:1020B0000000FFF775FD064605E000BFFFF770FD65
:1020C000801B0228C0D828688007F7D528682169B6
:1020D00020F0F80040EAC10028600DE0C8F800A038
:1020E000FFF75EFD064604E0FFF75AFD801B02285D
:1020F0001FD828688007F7D42078000722D5864F9C
:1021000087486169703771B101210160FFF748FDAF
:10211000064604E0FFF744FD801B022809D8386812
:102120008007F7D50EE0C0F800A0FFF739FD06469E
:1021300005E082E0FFF734FD801B02287DD8386877
:102140008007F7D42078400768D5DFF8CCB10027A6
:102150000BF13C0BDBF80000C0000BD4DBF80010E7
:1021600041F08051CBF80010DBF80000012700F0AF
:10217000805000906B4E3068C00510D4306840F439
:1021800080703060FFF70CFD009005E0FFF708FD60
:102190000099401A022850D83068C005F6D55E4E26
:1021A000A0686C3601280FD00528306810D020F0C8
:1021B00001003060306820F004003060A068B8B1E1
:1021C000FFF7EEFC00900FE0306840F00100F4E70C
:1021D00040F004003060F7E7FFF7E2FC0099411A95
:1021E00041F28830814266D830688007F4D50EE02D
:1021F000FFF7D6FC009007E0FFF7D2FC0099411AE8
:1022000041F28830814256D830688007F4D42FB12B
:10221000DBF8001021F08051CBF80010A069C8B3A2
:102220003D49091D0968C1F3810102294AD00228EC
:10223000504607D0C8F8600000E03CE0FFF7B0FC73
:1022400004463BE04746C8F86000FFF7A9FC064695
:1022500005E000BFFFF7A4FC801B02282BD82868EC
:102260008001F7D4D4E907010843A16A2E4A49083E
:1022700002EB0141626A41EA8211084394F82C1092
:1022800040EA0161C9F8001001203866FFF788FCB8
:10229000044606E03EE000BFFFF782FC001B022878
:1022A00009D828688001F7D534E000BFFFF778FC33
:1022B000001B022802D90320BDE8F88F286880019E
:1022C000F4D427E00128F7D0D9F80000E26900F43F
:1022D000800191421CD1226A00F03F01914217D146
:1022E00047F6C071626A0140B1EB821F10D1A26A49
:1022F0004FF0FF3300F4403103EB5202B1EB024FD9
:1023000006D194F82C1000F07060B0EB016F01D092
:102310000120D1E70020CFE7043802400000474207
:10232000800E4742007000400000FFFF70B50400BF
:1023300009D0606A002540B125616561A56294F805
:10234000510040B10CE0012070BD6068B0F5827FA3
:10235000F4D0E561F2E784F85050204600F044F8EC
:10236000022084F851002068016821F040010160DA
:10237000A088218900F4827001F404410843A189F6
:1023800001F400610843217C01F002010843217D32
:1023900001F001010843218B01F400710843217F02
:1023A00001F03801084394F8201001F0800108433F
:1023B000218D01F40051084321680860A0690421BF
:1023C00001EA104094F8241001F01001084321683C
:1023D00048602068C16921F40061C1616565012020
:1023E00084F85100002070BD10B586B00446142159
:1023F0006846FEF787F813492068884220D11248C2
:102400000021026842F480520260006800F48050AB
:1024100005900D481438026842F00102026000681D
:1024200000F001000590E02000900220CDE90101BC
:10243000032003900520049069460448FFF7AAFA98
:1024400006B010BD00300140443802400000024098
:102450007047704710B5040003D094F83D0010B1E8
:1024600007E0012010BD002084F83C00204600F069
:102470001EF8022084F83D00211D206801F0D8F9E3
:10248000012084F8460084F83E0084F83F0084F878
:10249000400084F8410084F8420084F8430084F846
:1024A000440084F8450084F83D00002010BD7047CA
:1024B00090F83D10012901D001207047022180F8D9
:1024C0003D100168CA6842F00102CA600068114903
:1024D000884214D0B0F1804F11D00F4988420ED0FD
:1024E0000E4988420BD00E49884208D00D498842D7
:1024F00005D00D49884202D00C49884204D1816838
:1025000001F00701062903D0016841F001010160D3
:102510000020704700000140000400400008004017
:10252000000C004000040140004001400018004041
:10253000704770B50446006801694FF00005C94353
:10254000890715D4C168C943890711D4E91E0161FF
:1025500001202077206880698007204602D0FFF79D
:10256000E7FF04E000F098F8204600F096F82577A1
:1025700020680169C943490717D4C168C94349079D
:1025800013D46FF004010161022020772068806974
:1025900010F4407F204602D0FFF7CAFF04E000F0AD
:1025A0007BF8204600F079F8257720680169C94357
:1025B000090716D4C168C943090712D46FF008018E
:1025C0000161042020772068C0698007204602D07E
:1025D000FFF7AEFF04E000F05FF8204600F05DF882
:1025E000257720680169C943C90617D4C168C94362
:1025F000C90613D46FF0100101610820207720680C
:10260000C06910F4407F204602D0FFF791FF04E03C
:1026100000F042F8204600F040F825772068016974
:10262000C943C90708D1C168C943C90704D1891E74
:102630000161204600F032F820680169C9430906AB
:1026400009D4C168C943090605D46FF0800101614E
:102650002046FFF7FDFE20680169C943490609D4F9
:10266000C168C943490605D46FF0400101612046A5
:1026700000F01EF820680169C94389060BD4C168BF
:10268000C943890607D46FF0200101612046BDE8E7
:102690007040FFF7DEBE70BD7047704700680349A9
:1026A000884201D1FFF7B6BA704700000000014030
:1026B0007047704710B504460068406994F83D10B3
:1026C000C0F3C010212911D180B12068143050E826
:1026D000001F21F0800140E80012002AF5D1606B54
:1026E00008B1FEF78AFF204601F0F2F92068406940
:1026F00094F83E10C0F38010222911D180B12068D7
:10270000143050E8001F21F0400140E80012002A78
:10271000F5D1A06B08B1FEF770FF204601F0B1F9CA
:10272000002010BD70470000F8B501680446086835
:10273000CA684B6910F00F0F4FF0000559D003F035
:10274000010602F49077374365D0C10705D0D10563
:1027500003D5216C41F001012164410705D5D9075A
:1027600003D0216C41F002012164810705D5D9070E
:1027700003D0216C41F004012164010707D502F068
:102780002001314303D0216C41F008012164216C08
:1027900000293AD0800604D5900602D5204601F0E3
:1027A000A5F920684069216CC0F38010090700D4A6
:1027B00060B3204601F065F920684069400621D5E4
:1027C0002068143050E8001F21F0400140E800125A
:1027D000002AF5D1A06BA8B16C490165A06BFEF78A
:1027E00055FF002811D0A06B016D01B0BDE8F0408D
:1027F000084783060FD593060DD52046BDE8F8405F
:1028000001F074B92046FFF78DFFF8BD2046FFF7B1
:1028100089FF2564F8BD266B2023012E79D1C606D9
:1028200077D5D60675D5086848680090486940068F
:1028300040D5A16B086840680004000CEAD0A28D66
:102840008242E7D9E085C869B0F5807F2DD0206845
:102850000C3050E8001F21F4807140E80012002A7B
:10286000F5D12068143050E8001F21F0010140E844
:102870000012002AF5D12068143050E8001F21F022
:10288000400140E80012002AF5D184F83E3025636B
:1028900020680C3050E8001F21F0100140E80012C1
:1028A000002AF5D1A06BFEF7A8FEA08DE18D401A9D
:1028B00081B229E0A08DE18D401A81B2E08D00281F
:1028C000A8D00029A6D020680C3050E8002F22F4B0
:1028D000907240E80026002EF5D12068143050E8B0
:1028E000002F22F0010240E80026002EF5D184F8E6
:1028F0003E30256320680C3050E8002F22F0100293
:1029000040E80023002BF5D12046FFF7D2FEF8BDAA
:10291000FFE705062BD5150629D594F83D0021289B
:10292000F5D1A068B0F5805F01D12069B0B1206A0F
:10293000411C2162216800784860E08C401E000440
:10294000000CE084E3D12068C16821F08001C160FF
:102950002068C16841F04001C160D8E7206A008862
:10296000C0F308004860206A801C2062E5E740064A
:10297000CDD55006CBD5CA68204622F04002CA60A9
:1029800084F83D3000F090FAC1E7000041390008BA
:1029900070B5040004D094F83D00002510B106E0A5
:1029A000012070BD84F83C50204600F023F824201C
:1029B00084F83D002068C16821F40051C1602046C0
:1029C00001F0F4F82068016921F490410161206868
:1029D000416921F02A0141612068C16841F4005138
:1029E000C1602564202084F83D0084F83E0000206A
:1029F00070BD00002DE9F04F87B0054614216846F0
:102A0000FDF780FDBF48BF49BD4B10382A68DFF88D
:102A1000F8E200244F0506154FF003084FF00209B5
:102A20004FF0080C4FF4807A9A423AD10A6842F487
:102A300000220A60096801F400210591016841F053
:102A4000010101600068CDE9008900F00100CDE9D5
:102A500004C0CDE9024869467046FEF79BFFDFF8E7
:102A6000B082AA494046C8F80010C0E90174C0E924
:102A70000346C8F81440C0E9064AC8F82040C8F820
:102A80002440FEF7E5FE08B1FEF733F8C5F83880BC
:102A9000002207213420C8F83850FFF741F93420CC
:102AA00096E09C4B9A4230D10A6842F480120A6048
:102AB000096801F480110591016841F00401016089
:102AC000016801F004010591016841F0080101600D
:102AD0000068CDE9024800F0080005909814CDE99F
:102AE000000965466946CDF810C08B48FEF752FFD5
:102AF0000420CDE90009CDE90248694604958748DC
:102B0000FEF748FF07B0BDE8F08F854B4FF0070C8C
:102B10004FF0400B9A425ED17A49A246091D0A68DD
:102B200042F010020A60096801F010010591016885
:102B300041F002010160006802AA00F00200059065
:102B4000C020CDE9000982E8101169467548FEF7FA
:102B500021FFDFF8BC81744908F160084046C8F8DD
:102B60000010C0E90174C0E90346C8F81440C8F871
:102B70001840C8F81C40C8F82040C8F82440FEF7A8
:102B800067FE08B1FDF7B5FF614C6748C5F83880AE
:102B9000C0347830C8F8385084E88108C4E903A606
:102BA000C4F814A0C4F818A0C4F81CA0C4F820A04D
:102BB0002046C4F824A0FEF74BFE08B1FDF799FFAC
:102BC0006C6300220E212520A563FFF7A9F82520BC
:102BD000FFF798F896E7554B9A423CD10A6842F4C1
:102BE00000320A60096801F400310591016841F082
:102BF00001010160006802AA00F0010005900C20AC
:102C0000CDE9000982E8101169467046FEF7C2FE60
:102C10003E49DFF81C8148314046C8F80010C0E941
:102C20000174C0E90346C8F81440C0E9064AC8F870
:102C30002040C8F82440FEF70BFE08B1FDF759FF0D
:102C4000C5F83880002208212620C8F83850FFF740
:102C500067F82620BCE7374B9A42BBD10A6842F49A
:102C600080220A60096801F480210591016841F021
:102C700002010160016801F002010591016841F063
:102C800004010160006802AA00F004000590D81455
:102C9000CDE90009E24682E8100569462148FEF7C1
:102CA00079FE02AA694682E81005CDE900691A4852
:102CB000FEF770FEDFF87880144908F1600840469E
:102CC0001831C0E90346C8F81440C8F81840C8F8DD
:102CD0001C40C8F8204088E88208C8F82440FEF765
:102CE000B7FD08B1FDF705FFC5F8348000220921C2
:102CF0002720C8F83850FFF713F8272068E70000AE
:102D0000004C004040380240000002404060024059
:102D1000200500200050004000080240000C024046
:102D200000100140000402404064024000440040A2
:102D3000400600200048004090F83E30202B0ED185
:102D400059B152B190F83C30012B08D0012380F8E2
:102D50003C300023036300F0AFBF01207047022026
:102D600070477047704700002DE9F843044690F81B
:102D70003D001F4616460D4620284CD1C5B1BEB1B8
:102D800094F83C00012846D0012084F83C004FF024
:102D90000008C4F84080212084F83D00FEF700FFC1
:102DA000A6848146E684A068B0F5805F03D004E085
:102DB0000120BDE8F883206928B12E465FF00005A8
:102DC00084F83C800EE00026FAE78021204600F0DF
:102DD000BBFFA0B9AEB116F8010B21684860E08CCA
:102DE000401EE084E08C4B464FF000020097002824
:102DF000EBD14FF04001204600F0A6FF30B1032098
:102E0000D7E735F8020BC0F30800E6E7202084F886
:102E10003D000020CDE70220CBE7000070B504465E
:102E200090F83D00202836D191B38AB394F83C0045
:102E3000012830D0012084F83C002162A284E28481
:102E400000252564212084F83D00636B1348D86376
:102E5000636B13481864636B1248D864606B134645
:102E600005652668606B321DFEF75CFD21686FF01A
:102E70004000086084F83C502068143050E8001F7F
:102E800041F0800140E80012002AF5D1002070BD19
:102E9000FFE70120FBE70220F9E70000373A0008CE
:102EA000793A00085139000870477047FEE7000082
:102EB00030B500287ED0017855297BD1417855293D
:102EC00078D182789FED690A6949012A04D0022AE3
:102ED00031D0032A6ED162E042790379120212B234
:102EE0001A4300EE902AF8EEE00A20EE801ADFED99
:102EF000610A21EE201A81ED001AC279837912024B
:102F000012B21A4301EE102AB8EEC11A21EE001ACD
:102F100021EE201A81ED011A427A037A120212B2CE
:102F20001A4301EE102AB8EEC11A21EE001A61EE22
:102F3000200AC1ED020A42790379120212B21A4341
:102F400000EE902AF8EEE00A60EE800AC1ED030A76
:102F5000C2798379120212B21A4300EE902AF8EE77
:102F6000E00A60EE800AC1ED040A427A037A120296
:102F700012B21A4300EE902AF8EEE00A60EE800AE0
:102F8000C1ED050AC27A837A120212B21A4300EE28
:102F9000902AF8EEE00A60EE800AC1ED060A427956
:102FA0000379120212B21A438A83C37984791B020D
:102FB0001BB200E059E000EE902A2343CB83F8EEE9
:102FC000E00A447A057A240220EE801AF1EE000A23
:102FD00024B22C4321EE201A0C8481ED0A1A01EE52
:102FE000103AB8EEC11A21EE001A21EE201A81ED36
:102FF0000B1A01EE104AB8EEC11A21EE001A61EE6A
:10300000200AC1ED0C0AC27A837A120212B21A4364
:103010004A84437B00EE902A1B021CB2F8EEE00AC1
:10302000037B1C438C8420EE801A037CDFED120AA4
:103030001B02807B1BB221EE201A0343CB8481ED5F
:103040000D1A01EE104AB8EEC11A21EE001A21EE57
:10305000201A81ED0E1A01EE103AB8EEC11A21EED7
:10306000000A20EE200A81ED0F0A30BD0000003872
:1030700098480020000034430000FA44104810B57E
:103080000E4901600321416000214FF4002281605C
:10309000C0E903124FF44012426101764176817615
:1030A000C176017701214177FEF78FF8002803D020
:1030B000BDE81040FDF71DBD10BD000000640040DC
:1030C00018030020104810B50E490160032141602B
:1030D00000214FF400228160C0E903124FF4401236
:1030E0004261017641768176C1760177012141778F
:1030F000FEF76BF8002803D0BDE81040FDF7F9BCDF
:1031000010BD000000680040400300201D4808B5C5
:10311000016841F480010160016801F480010091BF
:10312000016841F4001101600068002200F4001001
:10313000009005210D20FEF7F3FD0D20FEF7E2FDC6
:10314000002205210E20FEF7EBFD0E20FEF7DAFD32
:10315000002205211020FEF7E3FD1020FEF7D2FD2E
:10316000002205213A20FEF7DBFD3A20FEF7CAFDDA
:10317000002205214620FEF7D3FDBDE80840462089
:10318000FEF7C0BD3038024010B5B2B01C2227494E
:103190006846FDF785F90021684600F0CCFE244C16
:1031A00022491C2220601C3107A8FDF779F9002173
:1031B00007A800F0C0FE1D4960601C2238310EA82F
:1031C000FDF76EF900210EA800F0B5FE1749A060CA
:1031D0001C22543115A8FDF763F9002115A800F051
:1031E000AAFE1249E0601C2270311CA8FDF758F9B4
:1031F00000211CA800F09FFE0C4920611C228C318C
:1032000023A8FDF74DF9002123A800F094FE0749FB
:1032100060611C22A8312AA8FDF742F900212AA8E2
:1032200000F089FEA06132B010BD0000B44C00086F
:103230000000002070B586B014216846FDF762F9E1
:1032400027480025016841F004010160016801F090
:1032500004010591016841F080010160016801F0FD
:1032600080010591016841F001010160016801F0F0
:1032700001010591016841F002010160016801F05E
:1032800002010591016841F0080101600068154ED6
:1032900000F008000590012244F210013046FEF7CC
:1032A00079FC01244FF48040CDE9000469463046A2
:1032B000CDE90245FEF76EFB1020CDE90004029433
:1032C0000224694630460394FEF764FB2002CDE9F0
:1032D0000005694602943046FEF75CFB06B070BDFF
:1032E0003038024000080240094810B50749016023
:1032F000032141604FF4FA718160FEF757FC00280A
:1033000003D0BDE81040FDF7F4BB10BD0030004015
:1033100068030020114810B50F4901604FF4827115
:10332000416000214FF40062C0E902120122C0E9AD
:103330000412520282611822C0E9072141628162AF
:103340000A21C162FEF7F2FF002803D0BDE8104059
:10335000FDF7CFBB10BD000000300140740300201A
:103360000C4810B50A4901604FF4E1314160002179
:1033700081600C22C160C0E904128161C161FFF764
:1033800007FB002803D0BDE81040FDF7B2BB10BD1D
:10339000004C0040CC0300200C4810B50A490160E5
:1033A0004FF4E1314160002181600C22C160C0E92D
:1033B00004128161C161FFF7EBFA002803D0BDE878
:1033C0001040FDF796BB10BD0050004010040020D7
:1033D0000C4810B50A4901604FF4E1314160002109
:1033E00081600C22C160C0E904128161C161FFF7F4
:1033F000CFFA002803D0BDE81040FDF77ABB10BD1E
:1034000000100140540400200C4810B50A49016026
:103410000B494160002181600C22C160C0E90412A7
:103420008161C161FFF7B4FA002803D0BDE8104004
:10343000FDF75FBB10BD0000004400409804002071
:10344000A08601000C4810B50A4901604FF4E13133
:103450004160002181600C22C160C0E904128161D9
:10346000C161FFF795FA002803D0BDE81040FDF7D1
:1034700040BB10BD00480040DC040020FEE7FEE732
:1034800000B5010016D091ED102A01F1200281ED66
:10349000112A91ED0F1A81ED101AC1ED060A81ED86
:1034A000070A30EEC00A81ED0F0A087828B101281A
:1034B00032D064E09FED330A00BDD1ED010A01F185
:1034C000280060EE800AC1ED090AD1ED0A0AD1EDAB
:1034D000021A41EE800A30EE410AC1ED0A0AD1ED2E
:1034E0000D0AC1ED0E0AD1ED0C0AC1ED0D0A81EDF8
:1034F0000C0AD1ED030A20EE800A81ED0B0A91ED52
:10350000050A00F0C2FC91ED090AD1ED0A0A30EE7D
:10351000200AD1ED0B0A29E070EE410AD1ED011A23
:1035200060EEA10AC1ED090AD1ED021A61EE801A1E
:10353000C1ED0A1AD1ED0D2A70EEA10AC1ED0E2AD5
:10354000D1ED0C2AC1ED0D2AF0EE002A01EE620A3F
:1035500030EE020A81ED0C0A91ED031A21EE000A09
:1035600081ED0B0A30EE800AD1ED080A104630EEEC
:10357000200A81ED080A91ED040A00F086FC91ED25
:10358000080A00BD00000000002828D0002A26D02C
:10359000017092ED001A80ED011A92ED011A80ED92
:1035A000021A92ED021A80ED031AC0ED040A80EDB2
:1035B000050A9FED0B0A80ED0E0A80ED0D0A80EDE5
:1035C0000C0A80ED080A80ED0B0A80ED0A0A80EDF6
:1035D000090A80ED110A80ED100A80ED0F0A70478C
:1035E00000000000002819D09FED0D0A80ED110A9F
:1035F00080ED100A80ED0F0A80ED0E0A80ED0D0AB5
:1036000080ED0C0A80ED0B0A80ED0A0A80ED090AB4
:1036100080ED080A80ED060A80ED070A7047000079
:10362000000000000D4910B50868C26842F0200291
:10363000C2600868C16841F01001C16000F014F870
:103640000748084924220078BDE8104000EBC0007C
:1036500001EB80010148FFF76FBB000098040020D8
:10366000C2000020F048002010B5144C01200321B6
:103670002072800224F8040B24F8020C617120806F
:1036800060800020E0802081608120736073E08191
:1036900020746074A074E07420756075A075E07586
:1036A00020766076A076E07620776077A077E07766
:1036B0002084FEF775FA606210BD000038490020D2
:1036C000044C654221462846FDF7ECFA142000F030
:1036D00026FCF7E790E8FFFFFDF712F84FF40074BF
:1036E0002046FCF7BBFF012000F019FCF8E7FDF7CE
:1036F00037FAFDF747FAFDF7FFF90C2000F00FFC51
:10370000F7E740F2FF142046FCF7A8FF0A2000F07C
:1037100006FCF8E7074D4FF480444FF4C876214685
:103720002846FEF72FFA0448FEF76DFA304600F0FF
:10373000F6FBF4E70008024068030020012000F0D7
:10374000EEFBFBE7012000F0EAFBFBE710B55020A1
:1037500080F31188BFF34F8FBFF36F8F01F0DCF957
:1037600018B104494FF080500860002080F31188A0
:1037700010BD000004ED00E030B593B03021684684
:10378000FCF7C0FE14210CA8FCF7BCFE1F48002566
:10379000016841F080510160006800F08050119094
:1037A0001B48016841F4804101600068022400F474
:1037B00080401190092000904FF48030019001204A
:1037C000CDE905048005079006200890A820CDE9E2
:1037D000090404200B906846FEF7F2FB08B172B6AC
:1037E000FEE70CA90F2081E831004FF4A0500F90A4
:1037F0004FF48050109005210CA8FEF7D5FA002850
:1038000001D072B6FEE713B030BD00004038024070
:10381000007000400248016841F470010160704787
:1038200088ED00E00148FEF784BE0000000700209C
:10383000F0B50268254C264D264E274F274B4FF0FA
:10384000804CA04209D0604507D0A84205D0B042C4
:1038500003D0B84201D0984204D122F0700E4A68D9
:1038600042EA0E02A0421BD0604519D0A84217D0F0
:10387000B04215D0B84213D0984211D0184DA8428A
:103880000ED0184DA8420BD0174DA84208D0174DA6
:10389000A84205D0164DA84202D0164DA84203D129
:1038A00022F44075CA682A434D6922F080022A43F7
:1038B00002608A68C2620A688262A04201D09842AD
:1038C00001D10969016301214161F0BD000001409E
:1038D0000004004000080040000C004000040140CB
:1038E00000400140004401400048014000180040F1
:1038F000001C00400020004038B50F4800680168F7
:10390000C943C90617D4016841680091016840683D
:103910000948FEF7CFFE0948FFF7CAFA4FF4807452
:1039200021460648FCF7EEFD2246BDE83840034933
:103930000148FFF701BA38BDCC03002098470020AA
:1039400010B5806B0021C185C184FEF7EBFE10BD70
:1039500070B5846B2068406994F83D10C0F3C010C6
:103960000025212904D118B1E584204600F0B0F8E3
:103970002068406994F83E10C0F38010222904D1D9
:1039800018B1E585204600F07CF8206C40F010006E
:1039900020642046FEF7C6FE70BD10B50146806B60
:1039A00009680968C9052FD40021C18501680C3157
:1039B00051E8002F22F4807241E80023002BF5D15A
:1039C0000168143151E8002F22F0010241E8002380
:1039D000002BF5D10168143151E8002F22F040028C
:1039E00041E80023002BF5D1202180F83E10016B27
:1039F000012909D101680C3151E8002F22F0100291
:103A000041E80023002BF5D1016B012902D0FFF71B
:103A1000A8F910BD818DFEF74CFE10BD10B5806B6E
:103A2000016B012902D0FFF79DF910BD818D490876
:103A3000FEF73FFE10BD10B50146806B09680968AE
:103A4000C90516D40021C1840168143151E8002F42
:103A500022F0800241E80023002BF5D101680C31EF
:103A600051E8002F42F0400241E80023002BF5D13D
:103A700010BDFFF719FA10BD10B5806BFFF715FAEE
:103A800010BD01680C3151E8002F22F4907241E81A
:103A90000023002BF5D10168143151E8002F22F0EA
:103AA000010241E80023002BF5D1016B012909D166
:103AB00001680C3151E8002F22F0100241E8002388
:103AC000002BF5D1202180F83E10002101637047C2
:103AD00001680C3151E8002F22F0C00241E80023B8
:103AE000002BF5D1202180F83D10704708B590F8E3
:103AF0003E10222901D0022008BD82684FF4805375
:103B00009A4201D1016921B1816A9A421BD04AB11E
:103B10000AE00268816A5268C2F308020A80816A78
:103B2000891C08E0026972B10268526802F07F02E3
:103B30000A70816A491C8162C18D491E0904090C01
:103B4000C18503D019E002685268F1E70168CA68CC
:103B500022F02002CA600168CA6822F48072CA603A
:103B600001684A6922F001024A61202180F83E1072
:103B7000016B012903D0FFF7F4F8002008BD0021F4
:103B8000016301680C3151E8002F22F0100241E876
:103B90000023002BF5D101680A68D20602D50A6815
:103BA00049680091818DFEF784FDE6E770B5044613
:103BB00000680169E26821F4405111430161216903
:103BC000A068E26908436169114308432168CA6833
:103BD00049F20C639A430243CA6020684169A269B2
:103BE00021F440711143416131492068884202D07B
:103BF0003049884202D1FEF7A1F901E0FEF78EF9C3
:103C0000E2690023192164253226B2F5004F62686B
:103C100028D0A0FB0101930F9200FCF785FB014621
:103C2000B0FBF5F06FF01802504301EB800006EB9B
:103C30000010B0FBF5F000F0F002B1FBF5F002EB84
:103C40000012B1FBF5F06FF01803584301EB800050
:103C500006EB0010B0FBF5F000F00F0021681044F7
:103C6000886070BDA0FB010192185B41FCF75CFB12
:103C70000146B0FBF5F00201B1FBF5F06FF018035F
:103C8000584301EB800006EBC000B0FBF5F000F0FC
:103C9000F80002EB4002B1FBF5F0584301EB800065
:103CA00006EBC000B0FBF5F000F00700D6E700001F
:103CB000001001400014014038B581628285002562
:103CC000134604460564222084F83E00A26B1B487C
:103CD000D063A26B1A481064A26B1A48D064A06B20
:103CE0000A4605652168A06B091DFDF71BFE2068CB
:103CF00001684068009084F83C5020680C3050E81F
:103D0000001F41F4807140E80012002AF5D12068BC
:103D1000143050E8001F41F0010140E80012002A71
:103D2000F5D12068143050E8001F41F0400140E810
:103D30000012002AF5D1002038BD00009B39000890
:103D40001D3A0008513900082DE9F0419846174600
:103D50000E460446069D27E0681C25D02DB1FDF7D0
:103D60001FFFA0EB0800A8421ED920680C3050E8C5
:103D7000001F21F4D07140E80012002AF5D120681C
:103D8000143050E8001F21F0010140E80012002A21
:103D9000F5D1202084F83D0084F83E00002084F80E
:103DA0003C000320BDE8F0812068006836EA00008E
:103DB00004D00020B842CFD00020F3E70120F9E77B
:103DC00038B5094C2068C168890609D540688DF866
:103DD00000000121684600F0D9F821680348086016
:103DE0000148FEF7A1FC38BD54040020DFFFFFEFBF
:103DF000F8B51848164C0068257801684FF00006A1
:103E0000890602D50168416800910168C9061ED57E
:103E100040688DF800000F48FEF74CFC2078401CED
:103E2000C0B22070022800D1267020780A4C00EB26
:103E3000C00004EB800124220648FEF77DFF05EB5D
:103E4000C50004EB8000BDE8F840FCF7DDBDF8BD1F
:103E5000C200002098040020F04800200148FEF72E
:103E600063BC0000DC040020FEE70907090E0028FF
:103E700004DB00F1E02080F80014704700F00F0030
:103E800000F1E02080F8141D7047D0ED000AF4EE38
:103E9000C00AF1EE10FA06DCB1EE400AF4EEC00AF8
:103EA000F1EE10FA01D280ED000A704704E000BF85
:103EB00011F8013B1844C0B2521ED2B2F8D270477A
:103EC000FDF7B0FEFFF758FCFFF7B4F9FFF71EF956
:103ED000FFF70AFAFFF77CFAFFF7D0F8FFF7F2F8DE
:103EE000FFF73EFAFFF758FAFFF78EFAFFF7AAFA44
:103EF000FFF710FAFCF7D8FBFCF768FBFFF792FB23
:103F0000FCF7AEFEFCF7B8FEFFF73EF900F00EF846
:103F1000FEE701460020842900D0C81C704710B578
:103F200000B9012000F094FC002010BD10B500F095
:103F3000B5FC002010BD7FB50D4604464169B0F9BF
:103F4000080081B1A16971B1FFF7E3FFD4E905125F
:103F50008DE80700D4E900102B46226900F0B1FD7E
:103F6000039004B070BDFFF7D4FF03A9CDE90001B1
:103F7000208A2B4682B2D4E9001000F075FD01289A
:103F800001D00020EDE70398EBE700002DE9F041B8
:103F9000DFF84C80054640460C46B8F80610C3884A
:103FA00000680A19D8F800701844802A0AD9C1F1AB
:103FB00080018EB232462946FCF72DFAA21BA919C0
:103FC000384601E022462946FCF725FA98F8061003
:103FD000214401F07F01A8F80610BDE8F08100003F
:103FE000704900202DE9F34F81B06A4D0020009008
:103FF0004FF0FF0AEB88AA882889802100F0F8FAA0
:1040000084B2092C6ED36889A94698BB802300200E
:10401000B9F80470DFF880B1E51ED9F800602CE033
:104020003A18B2FBF3FC114603FB1C1216F802C04F
:104030004A1CB2FBF3F803FB1822B25C4CEA022CD8
:104040008A1CB2FBF3F803FB1822B25C4FEA024869
:10405000CA1CB2FBF3F103FB1121715C48EA016158
:104060004CEA010CDC4506D13844B0FBF3F103FB0C
:10407000110006E017E0401C80B2A842D0DB4FF0F0
:10408000FF3001B2002913DB0122A9F80A208AB20D
:10409000A9F80420B9F80630B9F80800802100F02A
:1040A000A7FA09281EDBB9F808004D4658B11CE0F4
:1040B000E41E3819C21700EB526222F07F02801A08
:1040C000A9F804000EE028792968421D801D02F03D
:1040D0007F0200F07F008A5C085C42EA00202881B1
:1040E000A04202D95046BDE8FE8F82B2A8881118BE
:1040F000491E8029296801440CDDC0F18000C2B24C
:104100000098FFF7D3FE297A2A7911448139CAB27F
:10411000296802E0521ED2B20098FFF7C7FEAB88B2
:104120002A892E689C18611ECF1701EB576727F06C
:104130007F07C91B715C814227D1802C0DD9C3F147
:10414000800084B2F11822460198FCF764F92889AE
:104150002968021B0198204401E0F1180198FCF73E
:104160005AF902982989018028792A6800F1090101
:1041700001F07F0112F801A0297A084400F07F00C5
:10418000A880002028816881ACE75B1C03F07F00D9
:10419000F6E7000070490020535A48592DE9F041D4
:1041A000184C0F460546E6682068001D00F088FAA6
:1041B00038B9206890F82C1001208840216981438B
:1041C0002161681C07D137B12168BDE8F0410E4874
:1041D000091D00F0B9BA20683544B5424560216830
:1041E00005D2A06BBDE8F041091D00F095BA606BE7
:1041F000091D00F091FAA06A854200D2A562BDE8CF
:10420000F081000030000020240800202DE9F0415A
:10421000054600F0A5FA2E4CA068401CA06020685E
:104220002C4F10B1606940B32DE02560A0680128D3
:1042300029D1002606EB860007EB800000F05EFA2D
:10424000761C072EF6D323488C3000F057FA21480D
:10425000A03000F053FA1F48B43000F04FFA1D4868
:10426000C83000F04BFA1B48DC3000F047FA194820
:104270008C3060631430A06305E02068E96AC06A8E
:10428000884200D82560606A401C6062E96A0120AB
:10429000226988401043206101EB810007EB800018
:1042A000291D00F051FA00F07BFA606900280CD05B
:1042B0002068E96AC06A884207D207494FF08050F7
:1042C0000860BFF34F8FBFF36F8FBDE8F081000030
:1042D000300000204807002004ED00E010B504463F
:1042E00090F8510058B101280CD002280FD050206E
:1042F00080F31188BFF34F8FBFF36F8FFEE7206B02
:1043000000F062FA2046BDE8104000F05DBA10BD32
:1043100010484FF47051420706D0C01D0D4920F0DF
:104320000700411AC1F570510B4A00230144C2E94C
:1043300000030839183A21F0070111604B600B6047
:104340000B1AC0E9001393604FF0004053605061B6
:10435000704700003808002084000020144E154CDF
:10436000A6F1C8074FF08058DFF84C9012E000BF6C
:1043700000F0F6F9F068C568281D00F0A1F9A06802
:10438000401EA0606068401E606000F009FA284688
:10439000FFF7A4FF60680028EAD138680128F9D93E
:1043A000C9F80080BFF34F8FBFF36F8FF2E70000B3
:1043B000100800203000002004ED00E02DE9F04757
:1043C0009A46DDE9098481466FF00303206B03EB15
:1043D00082021044089E20F00707780707D050207B
:1043E00080F31188BFF34F8FBFF36F8FFEE7002577
:1043F00061B1002023180A5C83F834200A5C12B1F2
:10440000401C1028F6D384F8435001E084F834505F
:10441000072E00D30626E662C4E91165201D00F0D0
:1044200078F904F1180000F074F92461C6F107006E
:104430006462A061E56484F85050524649463846AB
:1044400000F0C0F82060B8F1000F01D0C8F80040BB
:10445000BDE8F08730B5114900E011460A68824294
:10446000FBD34B685C18844203D140681844486011
:10447000084643681C18944209D1084C183C24682B
:10448000A24209D052681A4442600A681268026067
:10449000814200D0086030BD0460F9E7840000204C
:1044A0000648416B096829B1416BC968C968496808
:1044B000816270474FF0FF31FAE7000030000020C2
:1044C00008484068401C4FF0500080F3118804D029
:1044D000BFF34F8FBFF36F8FFEE7BFF34F8FBFF375
:1044E0006F8FFEE78C0000202DE9F0410546002784
:1044F00000F00AFA324E306808B9FFF709FF706918
:1045000005424ED1C5B3083568070ED005F0070047
:10451000C0F108000544680707D0502080F31188D7
:10452000BFF34F8FBFF36F8FFEE72DB370688542E7
:1045300037D82348183001460C6801E020460C4665
:104540006168A94202D221680029F7D131688C4202
:1045500027D007682168016060680837411B10296F
:104560000FD96019420708D0502080F31188BFF39B
:104570004F8FBFF36F8FFEE713E041606560FFF779
:1045800069FF61687068401A7060B268904200D23A
:10459000B060706901430020C4E90001F068401C6C
:1045A000F06000F01FFB780707D0502080F31188DF
:1045B000BFF34F8FBFF36F8FFEE73846BDE8F08142
:1045C0006C00002010B5031F4FF080741C601B1F8F
:1045D00021F001011960191F044B0B6014390A60A6
:1045E000091F6FF0020244380A6010BDC144000880
:1045F00010B504469A4201D8981A01E0881A184466
:1046000080B2844200D9002010BD0000F8B51546E4
:1046100000228DF800209A06140E164A144B1360DF
:1046200004F10B03C2F80530117150720A221149CE
:104630000020FFF73BFC8DF8000022462946FFF7DB
:1046400035FC0D4E8DF8000033460A2209490B480F
:10465000FEF78AFB3346224629460848FEF784FBCC
:104660003346012269460548FEF77EFBF8BD00008F
:10467000535A485964490020FFFF0F00540400209A
:104680000D4AAA231370AF235370E02393700323C2
:10469000D3701171010A517190710020D071135CB7
:1046A000D179401C1944C0B2D1710628F7D908222B
:1046B00001490248FEF7B2BBBA000020DC0400202A
:1046C000D0E9013201699A60D0E901235A604A6851
:1046D000824201D182684A60002202610868401E5D
:1046E0000860086870470000034B036003F1540042
:1046F0000860802010607047C400002000F10801AD
:104700004FF0FF32C0E90112C16001610021016078
:10471000704700210161704730B50B685A1C02D008
:1047200000F1080202E0026904E0224654682568AC
:104730009D42FAD953684B6099608A605160086164
:104740000168491C016030BD42684A6093688B6013
:1047500093685960916008610168491C0160704765
:10476000502080F31188BFF34F8FBFF36F8F0A493A
:104770004868401C486001280CD10848006810F0C7
:10478000FF0F07D0502080F31188BFF34F8FBFF386
:104790006F8FFEE7704700008C00002004ED00E002
:1047A0000849486828B1401E486001D180F311884B
:1047B0007047502080F31188BFF34F8FBFF36F8F86
:1047C000FEE700008C00002070B500282AD0164DAE
:1047D000A0F1080460686969084207D1502080F39D
:1047E0001188BFF34F8FBFF36F8FFEE722683AB196
:1047F000502080F31188BFF34F8FBFF36F8FFEE718
:104800008843606000F080F8606869680844686008
:104810002046FFF71FFE2869401C2861BDE8704054
:1048200000F0E0B970BD00006C0000204FF0E02007
:1048300000210161816105494FF47A720968B1FB79
:10484000F2F1491E41610721016170472C000020EF
:1048500010B5020014D00F48006B38B1502080F31F
:104860001188BFF34F8FBFF36F8FFEE700F04CF856
:1048700000211046FFF792FC00F0B4F9002807D1A0
:1048800005494FF080500860BFF34F8FBFF36F8F23
:1048900010BD00003000002004ED00E010B586B02F
:1048A0000024039405AA04A903A80494FFF71CFF9D
:1048B000DDE903010094CDE9011000230EA11048A9
:1048C000059A00F0FEF80F490028C86211D0502068
:1048D00080F31188BFF34F8FBFF36F8F4FF0FF301E
:1048E000886201204861CC6006B0BDE8104000F04D
:1048F00041B806B010BD000049444C45000000001E
:104900005D430008300000200248016B491C016330
:1049100070470000300000201448016B11B10121E4
:10492000C16170470021C1610169B1FA81F1C1F132
:104930001F0101EB81020E4951F822306BB101EBEE
:10494000820101F108034A6852684A609A4201D123
:1049500052684A60D16801607047502080F3118826
:10496000BFF34F8FBFF36F8FFEE7000030000020D2
:10497000480700201CB537480168374A914207D1E3
:10498000502080F31188BFF34F8FBFF36F8FFEE786
:1049900000683149491E884207D1502080F31188B0
:1049A000BFF34F8FBFF36F8FFEE72C49087801905C
:1049B000FF20087008788DF800009DF800009DF831
:1049C000002000F0F000904207D0502080F31188C2
:1049D000BFF34F8FBFF36F8FFEE79DF80000204CB1
:1049E00000F0500020700720A06005E09DF8002036
:1049F00052008DF80020401E9DF800201206F5D4CC
:104A0000A060032807D0502080F31188BFF34F8F98
:104A1000BFF36F8FFEE74FF44070A06001980870FD
:104A20000C482030016841F470010160016841F0D8
:104A300070410160FFF7FAFE00206060FBF718FC90
:104A40000848016841F040410160FBF7FDFB002090
:104A50001CBD000000ED00E071C20F4100E400E069
:104A60008C00002034EF00E02DE9FF5F8346DDE994
:104A70000E87994616468A469000FFF735FD0500D9
:104A80001CD05420FFF730FD040014D00020256313
:104A900084F85100CDE90240CDE900874B4632460B
:104AA00051465846FFF78AFC2046FFF7AFFB01202E
:104AB00004B0BDE8F09F2846FFF786FE4FF0FF30B8
:104AC000F6E7F0B585B0DDE90B640A9DA6B1DCB16F
:104AD000542700972663022684F85160002604AF0D
:104AE000CDE90246CDE90057FFF768FC2046FFF705
:104AF0008DFB049805B0F0BD502080F31188BFF302
:104B00004F8FBFF36F8FFEE7502080F31188BFF304
:104B10004F8FBFF36F8FFEE72DE9F0412F4C00263A
:104B2000206B28B1A069401CA0613046BDE8F0812F
:104B3000E5686D1CE56013D1606B006838B15020EA
:104B400080F31188BFF34F8FBFF36F8FFEE7606B69
:104B5000A16B6163A063206A401C2062FFF7A0FC88
:104B6000A06ADFF87C80854209D3606B0068A0B141
:104B7000606BC068C7687868854211D2A0622068FF
:104B8000C06A00EB800158F82100012800D90126F5
:104B9000E0690028C9D00126C7E74FF0FF30EDE7F4
:104BA000381DFFF78DFDB86A18B107F11800FFF73F
:104BB00087FDF96A0120226988401043206101EBDA
:104BC000810108EB8100391DFFF7BEFDF86A2168FD
:104BD000C96A8842C9D30126C7E700003000002017
:104BE000480700202DE9F0472C4D00242746286B6C
:104BF00038B1FFF7B5FD286B401E2863286B40B124
:104C000046E0502080F31188BFF34F8FBFF36F8FC2
:104C1000FEE7A968224E0120D1B3A6F1B40980466F
:104C20003068E8B1F068C46804F11800FFF748FD87
:104C3000201DFFF745FDE06A2A6908FA00F11143DB
:104C4000296100EB800109EB8100211DFFF77CFD4C
:104C5000E06A2968C96A8842E2D3C5F81C80DFE7A8
:104C60000CB1FFF71DFCAC6944B14646FFF754FF99
:104C700000B1EE61641EF9D10020A861E86938B185
:104C80000849012738070860BFF34F8FBFF36F8FC4
:104C9000FFF786FD3846BDE8F087000030000020B1
:104CA000FC07002004ED00E04FF04070E1EE100A38
:104CB00070470000F04D0008D936000800000000E1
:104CC0000000000080000000000000000000000064
:104CD000D84D000803370008FDFF00000000000069
:104CE000800000000000000000000000E44D00080B
:104CF000C1360008FDFF0000000000008000000039
:104D00000000000000000000A44D00084537000826
:104D1000FDFF000000000000800000000000000017
:104D200000000000C04D00083D370008FDFF0000F6
:104D300000000000800000000000000000000000F3
:104D4000CC4D0008EF360008FDFF00000000000019
:104D5000800000000000000000000000B44D0008CA
:104D600015370008FDFF0000000000008000000073
:104D700000000000000000000006101600061016DB
:104D800000000000000000000102030406070809FB
:104D90000000000001020304000040406F12033BCA
:104DA000000000004D696E695F50435F5461736B92
:104DB00000000000495744475F5461736B000000D6
:104DC0004A756467655F5461736B00004465627582
:104DD000675F5461736B000047696D62616C5F547B
:104DE00061736B00416D6D6F5F5461736B00000008
:104DF000436861737369735F5461736B00000000F3
:104E0000204E000800000020C4000000C40100087B
:104E1000E44E0008C4000020BC500000E00100087F
:104E20000000000000000000000000000000000082
:104E30000000000000000000000000000000000072
:104E40000100000010000000000000000024F40039
:104E50000000000000000000000000000000000052
:104E60000000000000000000000000000000000042
:104E70000000000000000000000000000000000032
:104E80000000000000000000000000000000000022
:104E90000000000000000000000000000000000012
:104EA0000000000000000000000000000000000002
:104EB000AAAAAAAA0000000000000000000000004A
:104EC00000000000000000000000000000000000E2
:104ED00000000000000000000000000000000000D2
:044EE00000000000CE
:040000050800018965
:00000001FF
