:020000040800F2
:1000000058870020D5030008237F0008ED72000800
:10001000217F0008CD2D00080DA70008000000007A
:1000200000000000000000000000000015030008B0
:10003000353A00080000000071030008B99D00086F
:10004000EF030008EF030008EF030008EF030008C8
:10005000EF030008EF030008A53A0008EF030008CB
:10006000EF030008AB3A0008B13A0008EF030008BC
:1000700049350008EF030008EF030008EF0300080C
:100080005535000861350008EF030008EF0300084C
:10009000252E0008EF030008EF030008B73A000818
:1000A000EF030008EF030008EF030008EF03000868
:1000B000EF030008EF030008EF030008EF03000858
:1000C000EF030008EF030008EF030008EF03000848
:1000D000EF030008EF03000851A600085DA6000822
:1000E000EF030008EF030008EF030008EF03000828
:1000F000EF030008EF030008EF030008EF03000818
:10010000EF030008EF030008EF030008EF03000807
:10011000EF030008EF030008EF030008EF030008F7
:10012000EF0300086D350008793500084D380008E8
:10013000EF030008EF030008EF030008EF030008D7
:10014000C12E0008EF030008EF030008EF030008CA
:10015000EF030008EF03000859380008C9A600089B
:10016000EF030008EF030008EF030008EF030008A7
:10017000EF030008EF030008EF0300080000000091
:10018000EF030008EF03000800F002F800F0B2F8F7
:100190000AA090E8000C82448344AAF10107DA45E2
:1001A00001D100F0A7F8AFF2090EBAE80F0013F082
:1001B000010F18BFFB1A43F001031847240B01007D
:1001C000440B01000A444FF0000C10F8013B13F0FF
:1001D000070408BF10F8014B1D1108BF10F8015BA0
:1001E000641E05D010F8016B641E01F8016BF9D193
:1001F00013F0080F1EBF10F8014BAD1C0C1B09D1EA
:100200006D1E58BF01F801CBFAD505E014F8016B5B
:1002100001F8016B6D1EF9D59142D6D370470000ED
:100220000023002400250026103A28BF78C1FBD8FF
:10023000520728BF30C148BF0B6070476E2900F0DD
:100240005B83702900F09D8466290FF0E98465299D
:100250000FF0E68467290FF0E38461290FF0E28450
:1002600003681B0A28BF41F08001692900F0088358
:10027000642900F00583752900F002836F2900F0DE
:100280002A84782900F06984E92900F0C583E429EB
:1002900000F0C283F52900F0BF83EF2900F0278426
:1002A000F82900F068840368DB0928BF41F0800169
:1002B000632901F0A981732901F0AE81E32901F0DE
:1002C000B981F32901F0BE81002070471FB50FF0FE
:1002D000EFFB01F00DFA0400002000210EF064F99C
:1002E000401C6060002000210EF048F9E0601FBD56
:1002F00010B510BD01F0CEF91146FFF7E7FF0CF085
:1003000081FB01F0ABFA03B4FFF7F2FF03BC01F08D
:1003100051FB00002C4B19680868B0E8F04F80F3DF
:100320000988BFF36F8F4FF0000080F3118870478A
:100330000000000008480068006880F308884FF05B
:10034000000080F3148862B661B6BFF34F8FBFF32D
:100350006F8F00DF00BF00BF08ED00E0DFF80C008A
:10036000016841F470010160704700BF88ED00E052
:10037000EFF30980BFF36F8F134B1A681EF0100F55
:1003800008BF20ED108A20E9F04F106009B44FF04B
:10039000500080F31188BFF34F8FBFF36F8F0DF0C4
:1003A00067FB4FF0000080F3118809BC19680868EA
:1003B000B0E8F04F1EF0100F08BFB0EC108A80F3C9
:1003C0000988BFF36F8F704738000020EFF3058076
:1003D000704700000948804709480047FEE7FEE7EC
:1003E000FEE7FEE7FEE7FEE7FEE7FEE7FEE7FEE7E5
:1003F00004480549054A064B70470000659E000801
:100400008901000858810020588700205883002067
:10041000588300209FED1A1AF5EE000A40EE010AFB
:10042000BDEEE00AF5EEC00A10EE100AF1EE10FA89
:1004300038BF401E00EE100A1349F7EE001AB8EE5E
:10044000C00A30EEC00ADFED0F0A20EE200AFCEEF3
:10045000C00A10EE900AC0F3080000EE900A01EB0B
:100460008000F8EE600A90ED011A70EE600A90EDDF
:10047000000A71EEE01A21EE800A00EE810A704750
:1004800083F9223E000000443C020108DFED190A16
:10049000B5EEC00A60EE200ABDEEE01A11EE100AB9
:1004A000F1EE10FA38BF401E00EE100A1349F7EEC5
:1004B000001AB8EEC00A30EEC00ADFED0F0A60EE97
:1004C000200ABCEEE00A10EE100AC0F3080000EEAD
:1004D000100A01EB8000B8EE400A90ED011A70EEB0
:1004E000C00A90ED000A71EEE01A21EE800A00EEDB
:1004F000810A704783F9223E000000443C02010853
:1005000053EA020C00F069802DE9F04B4FF0000631
:10051000002B1FBFB3FA83F503FA05F424FA05F69E
:100520005E4012BF1643B2FA82F502FA05F4C5F135
:1005300020051EBF22FA05FC44EA0C04203556EAC9
:10054000044C4FEA144418BF641C4FF000084FF0ED
:100550000009904271EB030C39D3002919BFB1FA9D
:1005600081F701FA07F6B0FA80F700FA07F6C7F14B
:1005700020071EBF20FA07FC46EA0C062037B6FB10
:10058000F4FCA7EB0507103F07F01F0BCBF120068B
:100590000CFA0BFB2CFA06F644BFB3460026202FBC
:1005A000A4BF5E464FF0000B5BEA060C08BF4FF09D
:1005B000010B19EB0B09ABFB027C48EB0608C01BD7
:1005C00006FB02CC0BFB03CC71EB0C01C1E70B4625
:1005D000024641464846BDE8F08B13B54FF0000097
:1005E0004FF00001AFF30080BDE81C4070470000F1
:1005F0001CB50C46064B7B4469460090204600F033
:1006000094F904460020694600F0A2F920461CBD7A
:100610005703000010B5431C02E010F8011B71B134
:100620008107FAD14FF0013202C88C1A8C4314EAC8
:10063000C211F9D0C01A0A0603D0C01E10BDC01ADC
:1006400010BD0A0401D0801E10BD0902FCD0401E5E
:1006500010BD032A40F2308010F0030C00F015802A
:1006600011F8013BBCF1020F624498BF11F801CBB5
:1006700000F8013B38BF11F8013BA2F1040298BF1A
:1006800000F801CB38BF00F8013B11F0030300F084
:100690002580083AC0F0088051F8043B083A51F828
:1006A00004CBA0E80810F5E7121D5CBF51F8043B2D
:1006B00040F8043BAFF30080D20724BF11F8013BA0
:1006C00011F801CB48BF11F8012B24BF00F8013B02
:1006D00000F801CB48BF00F8012B704710B5203A55
:1006E000C0F00B80B1E81850203AA0E81850B1E8EB
:1006F0001850A0E81850BFF4F5AF5FEA027C24BFA1
:10070000B1E81850A0E8185044BF18C918C0BDE897
:1007100010405FEA827C24BF51F8043B40F8043B60
:1007200008BF7047D20728BF31F8023B48BF11F815
:10073000012B28BF20F8023B48BF00F8012B70476F
:1007400002F0FF0343EA032242EA024200F0EABA5F
:100750004FF0000200B5134694469646203922BF5A
:10076000A0E80C50A0E80C50B1F12001BFF4F7AFA5
:10077000090728BFA0E80C5048BF0CC05DF804EB87
:10078000890028BF40F8042B08BF704748BF20F8F5
:10079000022B11F0804F18BF00F8012B70477047F3
:1007A0007047704710B500F0DDFA006810BD10B555
:1007B000044600F0D7FA046010BD70B504468569A0
:1007C0000068C10601D5302600E02026C00707D00A
:1007D00070BDD4E9012130469047206A401C206258
:1007E0006D1EF6D570BD70B5044685690078C007EA
:1007F00007D170BDD4E9012120209047206A401C18
:1008000020626D1EF6D570BD09684A0501D540B25B
:100810007047C905FCD500B2704709684A0501D583
:10082000C0B27047C905FCD580B2704770B50C46A0
:100830000546012A05D02878800600D5EA690023FC
:1008400002E0012305E05B1C934202D2E05C002839
:10085000F9D1A869E618C01AA861286A1844286264
:100860002846FFF7AAFF04E0D5E9012114F8010B9F
:100870009047B442F8D32846FFF7B5FF70BD00009B
:100880002DE9F0410646002410687529314616A569
:1008900010D0FFF7B9FF002802DA404213A507E0A5
:1008A00031688A0701D512A502E0490704D511A5D0
:1008B000012401E0FFF7B1FF00210A2206F124071D
:1008C00009E0B0FBF2FCB0FBF2F302FB1C0030309D
:1008D00078541846491C0028F3D123462A4630464E
:1008E000BDE8F04100F0A0BA000000002D000000BB
:1008F0002B0000002000000011680268006A530508
:1009000001D508700AE0D30501D5088006E013067A
:1009100003D5C217C1E9000200E00860012070475A
:1009200001694A1C02610878704700B58FB0CDE9B3
:1009300001310021059105497944CDE903101146A3
:10094000684600F029F90FB000BD0000E5FFFFFF89
:100950000A6802F8010B0A60704700002DE9FF5F8A
:1009600015468A460446DFF8AC80F8440027D8E9EB
:1009700000103E46CDE9001010E03AF816106A4625
:1009800002A800F063FE411C07D02178890603D538
:10099000E269391891420DD80744761C2078800608
:1009A00002D5E069B84205DDAE42E6DB3AF8160052
:1009B0000028E2D1A069C01BA0612046FFF7FDFE20
:1009C000D8E90010CDE90010002017E03AF818101F
:1009D0006A4602A800F03AFEB0F1FF3F81460BD014
:1009E00000250DF1080B05E0D4E901211BF80500F5
:1009F00090476D1C4D45F7D308F10100B042804689
:100A0000E4DB206A384420622046FFF7ECFEBDE8B4
:100A1000FF9F0000D20001002DE9F0418046D21D69
:100A200022F007020025D2E90002F52915A614D00C
:100A3000011E72F1000106DA0023D0EB030063EB24
:100A4000020211A608E0D8F800108B0701D50FA606
:100A500002E0490701D50EA601251146002408F140
:100A6000240704E000F082F930323A55641C50EA61
:100A70000102F7D12B46324621464046BDE8F041FF
:100A800000F0D2B9000000002D0000002B00000093
:100A90002000000030B4002100F1240408E002F03E
:100AA0000705D208303542EA4372DB086554491C19
:100AB00052EA0305F3D10468002310A2250707D5E5
:100AC000A40600D421B1C46901230DA2641EC4612F
:100AD00030BC00F0A9B910B5044621461068FFF7F4
:100AE0009CFE02462046BDE810400023D2E7D21DFE
:100AF00022F00701D1E90023CCE70000000000004C
:100B000030000000F0B40D460188090502D5214CE3
:100B10007C4402E01F4C7C440E34002100F124068A
:100B200008E002F00F071209E75D42EA03721B09B1
:100B30007754491C52EA0307F3D1027800231207C5
:100B400004D5702D06D009B1022311342246F0BC21
:100B500000F06AB901231034F8E770B504460D4679
:100B600021461068FFF759FE024629462046BDE897
:100B700070400023C6E7D21D22F00703D3E900230B
:100B8000C0E70368126843F0200303600823C361D1
:100B90000023B7E734FF00002DE9F05F89460446E3
:100BA0004FF0000ADFF874B1FB44C0F820A02046E3
:100BB000E1688847002874D0252806D0D4E90121AF
:100BC0009047206A401C2062F1E700265F462046DD
:100BD000E16888472028054607DB312D05D27819C2
:100BE00010F8200C08B10643F1E7B00701D526F054
:100BF0000406C4F81CA00027C4F818A02A2D09D0A8
:100C000028460AF033FD38B304EB8708303DC8F8B6
:100C1000185019E059F8041B204604EB8702916133
:100C2000E1688847012F054618D1E069002820DADD
:100C300026F020061DE0D8F8180000EB800005EB38
:100C400040003038C8F818002046E168884705465B
:100C50000AF00CFD0028EED1012F0AD02E2D08D16C
:100C60002046E16888477F1C0546022F46F0200693
:100C7000C4DBA069002803DA404246F00106A06107
:100C8000F00701D026F010066C2D0BD0682D09D08E
:100C90004C2D39D06A2D35D0742D35D07A2D33D0E6
:100CA00016E038E0E1682F4620468847B8420546FE
:100CB00009D16C2F26D04FF48060E16806432046AE
:100CC0008847054604E06C2F1AD04FF48070064325
:100CD0000DB3A5F14100192802D8203546F400666D
:100CE0004A462946204626604E46FFF7A7FA80B1BD
:100CF00001280BD0F61D26F0070000F1080956E781
:100D00004020E4E78020D8E70020D6E706F1040978
:100D10004DE7284652E7206ABDE8F09FC4FE000078
:100D20004FF000020429C0F0128010F0030C3FF4D1
:100D300011ADCCF1040CBCF1020F18BF00F8012B6F
:100D4000A8BF20F8022BA1EB0C01FFF703BD5FEA5F
:100D5000C17C24BF00F8012B00F8012B48BF00F82C
:100D6000012B704700487047F480002030B5B0F187
:100D70000A024FEA900E71F100034EEA817EB0EB59
:100D80000E0061EB91014FEA101E4EEA017E10EB5E
:100D90000E0041EB11114FEA102E4EEA016E10EBDE
:100DA0000E0041EB11214FEA104E4EEA014E10EBBE
:100DB0000E0041EB1141401841F100014FEAD00013
:100DC00040EA41704FEAD10110EB80054FEA8104FF
:100DD00044EA907444EB01046D1944EB0404521B83
:100DE000A3414FF0000348BF0A3200D530BD401C7C
:100DF00041F1000130BD00001FB584B000200A9C05
:100E000006AB04AA02A90094AFF3008018B1DDE993
:100E1000020108B010BD0348204000F028FD00206A
:100E20000146F6E70000207C2DE9F0470D46994683
:100E30009246044600F124080168880604D5E0695A
:100E400021F01001216000E00120A84201DD471BD4
:100E500000E00027A1697A1902EB0900081AA061D5
:100E60002078C00602D42046FFF7A7FC002608E041
:100E7000D4E901211AF806009047206A401C761C2C
:100E800020624E45F4DB2078C0060AD52046FFF7E5
:100E900094FC06E0D4E9012130209047206A401CF0
:100EA0002062381EA7F10107F4DC07E0D4E9012134
:100EB00018F805009047206A401C2062281EA5F102
:100EC0000105F3DC2046FFF78EFC2078000602D5F2
:100ED0000220BDE8F0870120FBE770472DE9FF4FB6
:100EE0000C461E464FF0FF378BB0D2E90001DDF80B
:100EF00060800A908A46C1F30A5505B93D46002133
:100F000008460EF07DFEBAF1000F00F4400005DA4D
:100F100000EB80004FF4400101EA50004FEA905985
:100F2000B9F1010F00DDB9460A9850EA4A000ED027
:100F300044F61050A5F2FF3545432F14B8F1000FC9
:100F40001ED07542291E1EDDC9F100021CE0B8F159
:100F5000010F4FF0000001D0302103E0F24305E023
:100F60002154401CB042FBDB3046002200212154BA
:100F70000B99C1F80880C1E900200FB0BDE8F08FDF
:100F8000BD1B6D1CDEE74A4600DA694206A800F088
:100F9000F3FB06AB93E8070003AB83E8070050467A
:100FA0000A9900F02EFD8DE80700A0F500501F38CB
:100FB00000900398002D0ADD42F21F014A460844C2
:100FC000002303A90390684600F097FF09E0A0F50D
:100FD00000504A461F38002303A90390684600F0DA
:100FE000A1FF8DE807000004000C03D04FF0FF3094
:100FF000410800E01046B8F1000F03D00022009233
:1010000015461EE0751E05D4FFF7B0FE303262555E
:101010006D1EF9D5B3460122084302D000227F1C81
:1010200004E02078302801D100227F1E002A099791
:1010300084D01DE0112D07DAFFF798FE303262559B
:101040006D1C50EA0102F5D1084302D00098C8B1E6
:101050000EE00021681E05E0235C625C63542254AC
:10106000401E491C8142F7DBAB46A81B401E09907D
:10107000002004F80B000B98099AC0F80880C0E91A
:10108000002B7AE711264FF0000857E72DE9F04FC3
:1010900088460446D21D22F0070191B0D1E9000133
:1010A000CDE90A0109F0A6FB02460B98C00F01D05A
:1010B0002D2007E02068810701D52B2002E02021A8
:1010C00001EAC000032A099001D0072A05DB034684
:1010D0004146204600F010FB0BE12078800601D548
:1010E000E06900E00620B8F1650F814606D0B8F14E
:1010F000660F18D0B8F1670F70D131E00020B9F158
:10110000110F009001DB112301E009F101030AAA8C
:1011100001A90CA8FFF7E2FEDDE90C70002609F139
:101120000105834647E001204B4600904FF0004701
:101130000AAA01A90CA8FFF7D1FEDDE90DB00C99B0
:101140005D46002610B909F101000D18B9EB050044
:1011500003D4C0F1FF3609F10105A5EB09002BE02E
:10116000B9F1010F01DA4FF001090020B9F1110FB7
:101170000090484601DD112300E003460AAA01A9B8
:101180000CA8FFF7ABFEDDE90C704D460026834648
:10119000207800070AD4AB4500DA5D4601A8012D8E
:1011A00004DD411911F8011C302907D04F4502DA3E
:1011B00017F1040F04DA012082460FE06D1EEEE7FE
:1011C000002F02DCED1B3E4403E0781CA84200DD4A
:1011D0007D1CB81B00F1010A4FF000472078000782
:1011E00003D4AA4501DB4FF0FF3A0021B7F1004FCD
:1011F0000DF143088DF8431024D002202B23002F3B
:1012000001DA7F422D230A21021EA0F1010000DC39
:101210005FB197FBF1FC97FBF1F201FB1C7C1746D9
:101220000CF1300C08F801CDEEE7A8F101000370D5
:101230002188090501D5452100E06521A0F10108BB
:1012400000F8011C09980FA9A1EB0807FF1D00B1C8
:101250000120411901EBEA70A1693844081A401EC7
:10126000A0612078C00602D42046FFF7A6FA0998AC
:1012700028B1D4E901219047206A401C20622078DF
:10128000C00622D52046FFF798FA1EE0002E04DBA8
:10129000B34502DD01A8805D00E03020D4E90121E2
:1012A0009047206A401C2062761CAAF101005FEA88
:1012B000000A0AD100F01CFAC0680168405CD4E959
:1012C00001219047206A401C2062281EA5F10105DB
:1012D000DCDC07E0D4E9012118F8010B9047206A13
:1012E000401C2062381EA7F10107F3DC2046FFF7FF
:1012F0007AFA032011B041E62DE9F04F04460D467D
:10130000D21D22F0070089B0D0E90097484639463F
:1013100009F070FA0246F80F01D02D2307E020688B
:10132000810701D52B2302E0202101EAC0038DF8BB
:1013300020300BB1012000E00020032A824601D0BA
:10134000072A04DB2946204600F0D6F93FE1207841
:10135000800601D40D2500E0E569C7F30A560D2D7E
:1013600049DA00214FEA175B08460EF049FC002FCE
:1013700000F4400007DA00EB80004FF4400100EB7E
:10138000D07001EA60008115012901DD4FF0FF31C5
:1013900000224FEA850CBCF1180F06D31346ACF1BE
:1013A00018004FF08052C24003E04FF4801323FA3C
:1013B0000CF30CF10C0CBCF1200F04D3ACF1200C9D
:1013C00009FA0CF001E007FA0CF000294FF0004890
:1013D00001DD18B90FE00ED140450CD319EB02091D
:1013E0005F4121B9404502D19F4329EA0209BBEB85
:1013F000175F00D0761C2088000502D57B48784412
:1014000002E07A487844193808AA302302F80A30F2
:10141000037C0AF10101002E0AF1020A53546A46C4
:1014200002DC4FF0300101E04FF031014FF00108D4
:101430008DF8001002D0A6F2FF3603E059EA47010A
:1014400000D06B4E002D02DC2178090704D54FF047
:1014500002082E218DF80110C44600210BE0C7F3CD
:1014600003433F01C35C491C6D1E02F80830052987
:1014700008F1010801DA002DF1DC00210CE000EB9D
:101480001973491C1B786D1E082902F808304FEAB1
:10149000091908F1010801DA002DF0DC21688B063A
:1014A00002D516E0A8F10108E04505DD02EB0803CE
:1014B00013F8013C302BF5D0B8F1000F09DD02EB39
:1014C000080313F8013C2E2B03D1090701D4A8F11E
:1014D0000108002D05DD3E2102F808106D1E08F1FF
:1014E0000108407C002E02F8080008F1010804DA27
:1014F0002D20764202F8080002E02B2002F80800B6
:101500000A214FF47A70864208F101080BDB96FB42
:10151000F0F3303302F8083096FBF0F308F10108DD
:1015200000FB136601E0642E0CDB642096FBF0F3F5
:10153000303302F8083096FBF0F308F1010800FBA5
:10154000136601E00A2E06DB96FBF1F0303002F85C
:10155000080008F1010896FBF1F001FB1060303043
:1015600002F80800A16908F1010808EB050202EB86
:101570000A00081AA0612078C00602D42046FFF7AE
:101580001CF9216A08AE01EB0A00206204E0D4E9EC
:10159000012116F8010B9047BAF1010AF7D2207821
:1015A000C00602D52046FFF708F96E4609E016F896
:1015B000010B3E280FD0D4E901219047206A401C3E
:1015C0002062B8F10108F2D22046FFF70CF909B009
:1015D0000320BDE8F08F206A2844206203E0D4E9AC
:1015E0000121302090476D1EEBD3F8E7B9F70000DA
:1015F00002FCFFFF10B5436913B1AFF3008001E0B7
:10160000FFF714F9012010BD127800F124010A70CF
:1016100000224A700122EDE711684FF0FF32E9E73E
:1016200010B5436913B1AFF3008001E0FFF796F9FD
:10163000012010BD128800F1240182840022C2849E
:101640000122EDE711684FF0FF32E9E770B5164669
:101650000C46054600F044F8036893F801010128A0
:1016600006D0FF2C0FD8185D68B101202C7070BD1A
:10167000D3F807013246214603F2071303442846F4
:10168000BDE8704018474FF0FF3070BD004870470C
:10169000F48000207546FFF7F9FFAE460500694665
:1016A000534620F00700854618B020B5FEF7A0FE8F
:1016B000BDE820404FF000064FF000074FF0000853
:1016C0004FF0000B21F00701AC46ACE8C009ACE8D4
:1016D000C009ACE8C009ACE8C0098D4670470000FD
:1016E00010B500F005F8001D10BD00BFBDCE000014
:1016F00000487047148100202DE9F0411F46044640
:1017000003260168072A01F4006004DB08B116A56E
:1017100005E016A503E008B115A500E015A521F028
:1017200010002060A069C01EA0610FB1401EA06122
:101730002046FFF742F84FB1D4E9012138469047DF
:10174000206A401C2062C01C206206E0206AFAE782
:10175000D4E9012115F8010B9047761EF8D22046F6
:10176000FFF741F8BDE8F0814E414E006E616E001A
:10177000494E4600696E66002DE9F04781461646DF
:101780008AB0354878440DC88DE80D003248784459
:10179000801C03AC0DC884E80D0041F69B30084462
:1017A000372190FBF1F290FBF1F5A5F1800501FBEB
:1017B00012041B3C02D56442012000E00020DFF847
:1017C00098A080460027FA44AAF1BE0A0EE0E0077E
:1017D0000AD03246684607EB470101230AEB810134
:1017E00000F0A0FB8DE8070064107F1C002CEED1F8
:1017F000194F7F44AE3F19E0E80715D007EB0410FE
:101800000DF1180A90E80E008AE80E00C068F04258
:1018100001D1981908903246012306A903A800F0C7
:1018200081FB03AB83E807006D10641C002DE3D13E
:101830004FF0010332466946B8F1000F03A802D009
:1018400000F05BFB01E000F06DFBC9E90001C9F8A5
:1018500008200AB0BDE8F087C4F4000010B50446C3
:10186000AFF300802046BDE81040FEF74CBD10B538
:1018700000F00AF8BDE81040AFF30080002801D066
:1018800000F098B87047000010B5022803D041015D
:1018900003D50DA112E0002010BD010101D50FA15B
:1018A0000CE0C10001D511A108E0810001D512A111
:1018B00004E0400001D513A100E0002115A000F0D4
:1018C0007FF8012010BD0000496E76616C696420CC
:1018D0004F7065726174696F6E00000044697669CB
:1018E0006465204279205A65726F00004F766572F8
:1018F000666C6F7700000000556E646572666C6FF1
:1019000077000000496E65786163742052657375D5
:101910006C7400005349474650453A20417269743F
:10192000686D6574696320657863657074696F6E4E
:101930003A2000004FF0013C50F8042B51F8043BD2
:101940009A4221D1A2EB0C03934313EACC1317D193
:1019500050F8042B51F8043B9A4215D1A2EB0C032A
:10196000934313EACC130BD150F8042B51F8043BEA
:101970009A4209D1A2EB0C03934313EACC13DBD0B8
:101980004FF00000704700BFD01A01BAB1FA81F1E0
:1019900001F0180122FA01F0CB40C1F12001DBB2C5
:1019A000C0B2C01A2CFA01F3D11A914311EAC31143
:1019B000E6D1704701491820ABBEFEE726000200C1
:1019C00070B505460C460A2000E06D1C00F011F8C9
:1019D00035B128780028F8D102E0641C00F009F83D
:1019E00014B120780028F8D1BDE870400A20AFF388
:1019F000008008B569468DF800000320ABBE08BD25
:101A000070475FEA400C08BF91F0000F4FEA8C234B
:101A10004FEAC12243EA51514FEA1C5018BF00F56A
:101A2000F0404FEA300018BF41F000415FEA6C5CC3
:101A300000F02980BCF1FF3F08BF40F080407047B4
:101A4000130C06BF12044FF0100C4FF0000C130ED5
:101A500004BF12020CF1080C130F04BF12010CF1A9
:101A6000040C930F04BF92000CF1020CD30F04BFBF
:101A700052000CF1010C11464FF00002A0F11F00C2
:101A8000A0EB0C00704711F0004F08BF704731F019
:101A900000413FF4D5AF0B0C06BF09044FF0100C0A
:101AA0004FF0000C0B0E04BF09020CF1080C0B0FD9
:101AB00004BF09010CF1040C8B0F04BF89000CF169
:101AC000020CCB0F04BF49000CF1010CCCF1200338
:101AD000A0EB0C0022FA03F302FA0CF241EA030134
:101AE00000F10100704720F07F4C80EA030023F0F2
:101AF0007F47ACEB070303F57C5300F0004003F194
:101B0000FF032DE980494FEA154B09B44FEA14430E
:101B100025EA0B4E24EA03480FF2042606EB1327AE
:101B200049083E785FEA320203FB0667C7F5000703
:101B300007FB06F64FEA54374FEAD64606F102068F
:101B400007FB066CCCF1005C4FEA1C472CEA074C03
:101B500007FB06F40CFB06F504EB15464FEA961658
:101B600034BF00204FF000404FEAD13706FB07FC9E
:101B70004FEA1C4C0CFB0BF7D21B03FB0CF761EB81
:101B800007010CFB0EF7B0EB074072EB17420CFBA2
:101B900008F734BFA2EB0742B2EB074261EB1741F3
:101BA0004FEA0C444FEA910706FB07FC4FEA1C4C36
:101BB0000CFB0BF7B0EBC74072EB573203FB0CF793
:101BC00034BFA2EBC742B2EBC74261EB57310CFB0B
:101BD0000EF7B0EBC70072EB57720CFB08F734BF7F
:101BE000A2EBC702B2EBC70261EB5771039F4FEA4A
:101BF000816141EA921104EBCC044FEAD1374FEAFC
:101C0000826206FB07FC42EA90124FEA80604FEACC
:101C10001C4C0CFB0BF7D21B03FB0CF761EB070111
:101C20000CFB0EF7B0EB074072EB17420CFB08F70A
:101C300034BFA2EB0742B2EB074261EB17414FEA18
:101C40008C554FEA910704EB9C2406FB07FC4FEAF6
:101C50001C4C0CFB0BF7B0EBC74072EB573203FB8D
:101C60000CF734BFA2EBC742B2EBC74261EB57316E
:101C70000CFB0EF7B0EBC70072EB57720CFB08F7CA
:101C800034BFA2EBC702B2EBC70261EB577115EB91
:101C90004C254FEA816141EA92114FEA82624FEA94
:101CA000D13742EA901206FB07FC44F100044FEAE8
:101CB00080604FEA1C4C0CFB0BF7D21B03FB0CF7AC
:101CC00061EB07010CFB0EF7B0EB074072EB17421C
:101CD0000CFB08F734BFA2EB0742B2EB074261EB03
:101CE000174115EB1C154FEA813141EA92414FEA49
:101CF000823242EA90424FEA80304FEA0C7644F159
:101D0000000448EA03434EEA0B484FF0000EB2EBE2
:101D1000080C71EB030724BF624639464EEB0E0EEA
:101D20004FF0000B0018524149414BEB0B0BB2EB4B
:101D3000080C71EB03077BF1000B24BF62463946A8
:101D40004EEB0E0E4FF0000B0018524149414BEB89
:101D50000B0BB2EB080C71EB03077BF1000B24BFFC
:101D6000624639464EEB0E0E51EA020718BF46F0A6
:101D7000010616EB0E7655F1000254F1000103D571
:101D8000BDE88901BDE80088BDE88901BDE80048DB
:101D9000B619524141EB0101A3F101037047808064
:101DA0007F7E7D7C7B7A79787776767574737271B5
:101DB00071706F6E6E6D6C6C6B6A6A69686867666D
:101DC00066656464636362616160605F5F5E5E5DFF
:101DD0005D5C5C5B5B5A5A59595858575756565573
:101DE00055555454535352525251515050504F4FD5
:101DF0004F4E4E4D4D4D4C4C4C4B4B4B4A4A4A4925
:101E00004949484848474747474646464545454467
:101E10004444444343434342424242414141002BF4
:101E20009C4630D477002BD01CB54FEA370703B45B
:101E30004FF010004FF01001BAF1000F06D0BCF1C6
:101E4000000FDCBF40F0080040F008010DF0D8FEA4
:101E50000FBCBDE810400BF1010BBBF1010F08BF37
:101E60005FEA170722BF12F1010211F101014FF0E1
:101E7000004143F1000300F0004043EA00007047D6
:101E8000F9D35708D0E746EA064613F1400F4FEA68
:101E900016461FDD13F1200FDFBF16430A4600214F
:101EA00020335B42BED0C3F1200746EA064602FA61
:101EB00007F74FEA164646EA0706C3F1200722FA5B
:101EC00003F201FA07F721FA03F14FF0000342EAA7
:101ED0000702A7E746EA020646EA06464FEA164622
:101EE00046EA0106BCBF46EA0646360C4FF0000340
:101EF0004FF000024FF0000194E72DE9804C9A4624
:101F0000934670B491E8380007C831EA400C48BFE6
:101F100034EA430C03D5FFF7E6FDFFF780FFF0BC82
:101F2000BDE8008C2DE9804C9A46934670B491E848
:101F3000380007C810F0804F08BF13F0804F03D15E
:101F400000F005F8FFF76BFFF0BCBDE8008C20F057
:101F50007F4780EA030023F07F4C07EB0C03A3F5D7
:101F60007C5300F00040A3F1FE0392F0000F00F05C
:101F7000B38095F0000F00F077802DE901494FEA1A
:101F800011404FEA144621EA004800FB06FC24EA0F
:101F9000064708FB06F607FB08F800FB07F718EBF7
:101FA00006484CEB164C4FEA124B18EB07484FEA29
:101FB00015464CEB174022EA0B4E0BFB06FC25EABC
:101FC00006470EFB06F607FB0EFE0BFB07F71EEBA4
:101FD000064E4CEB164C4FF000061EEB074E4CEB3A
:101FE000174B18EB0B0840F1000018EB0E0B58EBE9
:101FF000000840F100008F1A4FF000013CBFC943B8
:10200000661B14BFB5EB040C00213CBFC943F61B93
:102010004FEA17444EEA8E0E27EA04454FEA1C4762
:1020200004FB07622CEA074C05FB07F70CFB05F6DF
:1020300004FB0CFC16EB074642EB174216EB0C4672
:1020400042EB1C421BEB060658EB0202414146EAFA
:102050009E0601D5BDE80189B619524141EB010147
:10206000A3F10103BDE801894FEA14454FEA114786
:1020700024EA054621EA074C05FB07F406FB07F7AF
:102080000CFB06F105FB0CFC11EB074144EB17447C
:102090004FEA124711EB0C4144EB1C4422EA074C77
:1020A00005FB07F206FB07F70CFB06F605FB0CFC2D
:1020B00016EB074642EB174216EB0C4642EB1C456B
:1020C0006A1854F1000148BF7047B619524141EBFC
:1020D0000101A3F10103704795F0000F37D04FEADB
:1020E00011424FEA144721EA024624EA074C02FB58
:1020F00007F106FB07F70CFB06F402FB0CFC14EBE4
:10210000074441EB17414FEA154714EB0C4441EBF0
:102110001C4125EA074C02FB07F506FB07F70CFB01
:1021200006F602FB0CFC16EB074645EB174516EBD3
:102130000C4645EB1C42121951F1000148BF704793
:10214000B619524141EB0101A3F1010370474FEA77
:1021500014454FEA114724EA054621EA074C05FBDE
:1021600007F106FB07F70CFB06F24FF0000605FB34
:102170000CFC12EB074241EB174112EB0C4251EB06
:102180001C4148BF7047921841EB0101A3F10103C4
:102190007047000038B5072000E064200AF069FCB1
:1021A00000F002FD0028F8D102E064200AF061FC92
:1021B0000AF0E8FB0028F8D12E4AA2F10C01101D0C
:1021C00000F00AFD2B483830A0F14803A0F17C0252
:1021D000A0F18801009094380AF058FA2548DFED04
:1021E000260A9FED260A264A0021543005F09EFF5C
:1021F000204A443AA2F10C0101F1180000F0F0F974
:102200001C485038A0F1180190ED000AA0F12402FA
:1022100081ED000AA0F1300382ED000A83ED000A8F
:1022200090ED010A81ED010A82ED010A83ED010AB8
:1022300090ED020A002081ED020A82ED020A83ED90
:10224000020A0AF04DFC0BF091FF0E4C0E49206182
:102250001020C861084604F075F808B101F02EFCA2
:10226000084908222031A1F1080007F0BFFA012037
:10227000207138BD1C7900200080894500A08C4564
:10228000ACFE000830010020D40900202DE9F04305
:102290004FF0FF342DED048B81B0214601200BF06F
:1022A00015F90128F9D1AE4C2078000708D520781F
:1022B00020F008002070AB4904F1210000F044FC3C
:1022C0006078DFF8A0924007A9F114090BD5607877
:1022D00020F00400607009F1200209F10401A2F16C
:1022E0002A0000F0E7FBA078A04640070FD598F839
:1022F000021021F0040188F802109A499848091F39
:10230000163000F043FD99ED040A0AF0C3FA95482F
:102310003430A0F14803A0F17C02A0F188010090C4
:1023200094380AF0B3F98F487838A0F10C02D0ED58
:10233000000A00F10C01C2ED000A91ED001A80EDD7
:10234000001A9FED890A61EE001A9FED881A00F1CC
:10235000240540EE811A95ED002ADFED850A00F193
:10236000300342EE201AC1ED001AD0ED011AC2ED81
:10237000011A91ED012A80ED012A22EE002A01EED8
:10238000812AD5ED011A01EEA02A81ED012AD0EDB6
:10239000021AC2ED021A91ED022A0A4680ED022AC3
:1023A00022EE000A01EE810A95ED021A01EE200AE2
:1023B00081ED020A0C319FED6F0A3C3000F06AFAA1
:1023C00005F13003A3F108063146321DA1F11000DA
:1023D0000AF058F805F1EC04D4ED018AC4ED058A41
:1023E000376838460DF0AEFA9FED639B53EC192B1E
:1023F0000CF0DEFD0CF0FAF808EE100A384684ED19
:10240000018A0DF09FFA53EC192B0CF0D1FD0CF062
:10241000EDF82060B0680DF095FA53EC192B0CF034
:10242000C7FD0CF0E3F8A06070680DF08BFA53EC78
:10243000192B0CF0BDFD0CF0D9F8E06099ED040A01
:1024400010EE100A2061A4F1F800D0ED000A9FED13
:102450004C0AB5EEC08A60EE800AC4ED070AD0EDE2
:10246000010A60EE800AC4ED080AD0ED020A20EEEF
:10247000800A84ED090A95ED000A10EE100AA062A8
:1024800095ED010A10EE100AE06295ED020A10EED9
:10249000100A2063A4F1D40090ED000A10EE101A87
:1024A000616390ED010A10EE101AA16390ED020A2B
:1024B00010EE101AE16390ED030A10EE100A9FED82
:1024C000310A2064F1EE10FA03D278EE000AC4ED6E
:1024D000010A2D496068884202DC00EE100A05E01E
:1024E00000EE900A30EEC00A84ED010A70EE680A30
:1024F000264910EE900A884203DDB4F84400401EDD
:1025000009E070EE680A224910EE900A884204D968
:10251000B4F84400401CA4F84400B4F844004FF45C
:10252000B47110FB01F000EE900A4046F8EEE00AAC
:1025300030EE800A84ED060A98F8031011F00101CC
:1025400088F8031007D0C17821F00101C170C1786B
:1025500041F00201C17001B0BDEC048BBDE8F08315
:1025600030010020207900205AF8F63F5D896EBFC7
:10257000D5A9183B6F12833AECC9631ADCA54C400D
:102580000000C8420000B4430000B44300003443DC
:10259000000034C308F06AB908F0FEB9FDF73ABF8D
:1025A000F0EE400AF5EEC00AF1EE10FA02DDB0EEF0
:1025B000600A7047B1EE600AFBE70000002803D014
:1025C0009FED020A80ED000A704700000000000045
:1025D000002803D0B3EE060A80ED000A7047000021
:1025E00070B52DED0C8B84B006460C4615469FED5C
:1025F000990AF0EE408A9FED970AB0EE409A9FED5F
:10260000950AF0EE40BA9FED930AF0EE409A9FEDE6
:10261000910AB0EE40AA0EB104B11DB904B0BDECF0
:102620000C8B70BD8C48FFF7C9FF8C48FFF7D0FFBB
:102630008A48D0ED000A9FED8A1A60EE810AB0EE5A
:10264000600A00F025F9F0EE408A28EEA80AF0EEC4
:10265000408A8248D0ED000AB0EE001A60EE810A8E
:102660009FED7F1A60EE810AB0EE600A00F010F96B
:10267000B0EE409A29EE090AB0EE409ADFED790AF1
:10268000B7EE000A00EEA80ADFED770A00EEC90AED
:10269000DFED760A20EE200A754880ED000A6E48CC
:1026A00090ED000ADFED730A80EE201AB7EE000A03
:1026B00031EE000A20EE000A6D48D0ED000A80EEEF
:1026C000801A6D4880ED001A94ED000AB5EEC00A3C
:1026D000F1EE10FA0DD194ED010AB5EEC00AF1EE5B
:1026E00010FA06D194ED020AB5EEC00AF1EE10FA26
:1026F00046D09FED580AB0EE408A0020019002902B
:102700000390D4ED000A60EEA00A94ED011AD4ED16
:10271000011A41EE210A94ED021AD4ED021A41EE9B
:10272000210AB0EE600A00F0A9F8B0EE408A94EDFC
:10273000000A20EE080A8DED010A94ED010A20EE50
:10274000080A8DED020A94ED020A20EE080A8DEDCA
:10275000030ADDED010AF1EE600AB0EE600AFFF750
:1027600019FFF0EE409A9DED031AF0EE410A9DED3F
:10277000021AB0EE410AFFF70FFFB0EE40AA07E0E1
:102780009FED340AF0EE409A9FED320AB0EE40AA77
:1027900095ED000AB5EEC00AF1EE10FA0DD195EDF7
:1027A000010AB5EEC00AF1EE10FA06D195ED020A63
:1027B000B5EEC00AF1EE10FA3CD0B0EE690A00F0B6
:1027C00067F8B0EE408AB0EE690AFFF7E7FEB0EEB8
:1027D00040DAB0EE4A0A00F05BF8F0EE40AAB0EE44
:1027E0004A0AFFF7DBFEB0EE40BA28EE2A0AD5ED22
:1027F000010A20EE200AD5ED000A0DEE200A68EE4F
:102800000B0A95ED021A00EE810AB0EE40CA95ED72
:10281000010A20EE0B0AD5ED020A0AEEE00AF0EEFC
:1028200040CAF0EE6C0AB0EE4C0AFFF7B5FEF0EECF
:1028300040BA03E09FED070AF0EE40BAB0EE4A1A44
:10284000F0EE690AB0EE6B0A304609F0D5F800BF29
:10285000E4E6000000000000680200206C02002096
:1028600035FA8E3CC1BFAD3B9DF8C5362F7C1C416F
:1028700070020020506CC24A7402002010B508F0AB
:10288000ABFAB7EE001AC1EE000AB0EE600A10BD56
:10289000FDF7FCBD2DE9F0412DED028B9AB0054608
:1028A000B0EE408A0E4617469846002017901890C2
:1028B00019901490159016904DB146B13FB1B8F1F2
:1028C000000F04D0B5EEC08AF1EE10FA05D1002059
:1028D0001AB0BDEC028BBDE8F08196ED000A8DEDDB
:1028E000170A96ED010A8DED180A96ED020A8DED94
:1028F000190A97ED000A8DED140A97ED010A8DED86
:10290000150A97ED020A8DED160A17AA14A9284692
:1029100008F0C4FE402104A8FDF71AFF0020009033
:10292000019002900390002417A904A80AF002FE67
:1029300000BF30E004A800EB041090ED000AD5EDD4
:10294000000A20EE200A04A800EB0410D0ED010AD2
:1029500095ED011A00EE810A04A800EB0410D0EDF9
:10296000020A95ED021A00EE810A04A800EB041099
:10297000D0ED030A95ED031A00EE810A20EE080A55
:10298000F0EE000A80EE201A684600EB840080ED2D
:10299000001A601CC4B2042CCCDB002410E005EB50
:1029A000840090ED000A684600EB8400D0ED000A38
:1029B00030EE200A05EB840080ED000A601CC4B2F2
:1029C000042CECDB28460AF01FFD012080E7000004
:1029D00010B50B4803F04EFF0821094804F092F8A7
:1029E000084803F047FF0021064804F08BF806482A
:1029F00003F040FFBDE810400021034804F082B816
:102A0000340B00207C0B0020EC0A002006480178E3
:102A1000B0F80500A52940BA05D1A0F540700138ED
:102A200001D105F049BD7047D07D002030B50C467E
:102A300005000CD0022C0AD90548A11E02882846A0
:102A400001F026FB291901F8020D000A487030BD7B
:102A50006402002030B50C46050008D0022C06D9CF
:102A6000FF22611E01F02AFB291901F8010C30BD7B
:102A700001221021014802F0EDBD000000000240DB
:102A800000221021014802F0E5BD000000000240D4
:102A90007047000001221146014802F0DBBD000032
:102AA0000004024000220121014802F0D3BD0000D1
:102AB0000004024030B5437804781B021BB2234364
:102AC00000EE103A1B4CB8EEC00AD4ED000A20EE1E
:102AD000200A81ED000AC37885781B021BB22B43C4
:102AE00000EE103AD4ED000AB8EEC00A20EE200A3B
:102AF00081ED010A437904791B021BB2234300EEE6
:102B0000103AB8EEC00A20EE200ADFED0B0A81ED84
:102B1000020A017AC3790904807941EA0321014359
:102B200000EE101AB8EE400A20EE200A82ED000AEC
:102B300030BD0000D001002000401C42704709F069
:102B400098BF09F097BB000010B5427803781202D5
:102B500012B21A4300EE102A124BB8EEC00AD3ED9F
:102B6000010A20EE200A81ED000AC2788478120260
:102B700012B2224300EE102AD3ED010AB8EEC00AC9
:102B800020EE200A81ED010A42790079120212B288
:102B9000024300EE102AB8EEC00A20EE200A81EDB2
:102BA000020A10BDD001002010B5FFF771FFFFF73A
:102BB000C5FF09F06BF808B1802402E008F0D2FFED
:102BC000044609F031FA10B144F0400010BD09F09C
:102BD000BDF9204310BD00002DE9FC41074600204F
:102BE00016460D4600900190FFF74AFF922000F034
:102BF000BDF806226946122000F09AF8FFF738FF68
:102C00009DF801009DF80010000200B2084300EE9C
:102C1000100A464CB8EEC00AD4ED000A20EE200A95
:102C200085ED000A9DF803009DF80210000200B235
:102C3000084300EE100AD4ED000AB8EEC00A20EEF8
:102C4000200A85ED010A9DF805009DF80410000298
:102C500000B2084300EE100AB8EEC00A20EE200AC7
:102C600085ED020AFFF71EFF08226946002000F0EA
:102C70005FF8FFF70FFF9DF800000F2830D19DF897
:102C800003009DF80210000200B2084300EE100A93
:102C9000D4ED010AB8EEC00A20EE200A87ED000A42
:102CA0009DF805009DF80410000200B2084300EEF4
:102CB000100AD4ED010AB8EEC00A20EE200A87ED12
:102CC000010A9DF807009DF80610000200B20843B3
:102CD00000EE100AB8EEC00A20EE200A87ED020AC4
:102CE000FFF7CEFEA22000F041F802226946222022
:102CF00000F01EF8FFF7BCFE9DF800009DF80110E3
:102D0000C00040EA5110B0F5806F01DBA0F5006013
:102D100000EE100AB4EE001AF8EEC00AB3EE070A8D
:102D200000EE810A86ED000ABDE8FC81D00100209A
:102D300070B514460D4640F0800000F017F806E02C
:102D4000552000F013F8641E05F8010BE4B2002CC6
:102D5000F6D170BD10B50C4640F0800000F006F8CA
:102D6000552000F003F8207010BD000001B582B0BE
:102D70004FF47A700090012301AA02A9024803F0DF
:102D8000BFFB9DF804000EBDD409002002784078F6
:102D9000D20042EA5010B0F5806F01DBA0F5006070
:102DA00000EE100AB4EE001AF8EEC00AB3EE070AFD
:102DB00000EE810A81ED000A704710B50C46FFF75E
:102DC000D5FF2046BDE81040FFF7D0BFFEE700006A
:102DD00030B5134AC1F30723CCB202F10801092828
:102DE00008D2DFE800F00705080B0E1114171A00CF
:102DF0001370547030BD9370D47030BD1371547122
:102E000030BD9371D47130BD0B704C7030BD8B7080
:102E1000CC7030BD0B714C7130BD8B71CC7130BD3D
:102E2000B4000020014801F054BD0000200900203A
:102E300000B587B000210291039100900821A0F510
:102E400080700491FF3804D0012809D106AB054AEF
:102E500002E0044A06AB08326946034801F0D0FBA1
:102E600007B000BDB40000202009002030B5134A8F
:102E7000C1F30723CCB202F10801092808D2DFE828
:102E800000F00705080B0E1114171A001370547088
:102E900030BD9370D47030BD1371547130BD9371D7
:102EA000D47130BD0B704C7030BD8B70CC7030BDA8
:102EB0000B714C7130BD8B71CC7130BDC4000020E2
:102EC000014801F006BD00004809002000B587B0A8
:102ED00000210291039100900821A0F580700491D7
:102EE000FF3804D0012809D106AB054A02E0044AA4
:102EF00006AB08326946034801F082FB07B000BD0B
:102F0000C40000204809002000B58BB0002001213A
:102F1000CDE9060108910090019002900390059080
:102F2000049069460C4801F0D9FB0B4801F0A8FF5A
:102F30000221094801F052FB0E20099005906946D4
:102F4000064801F0CBFB054801F09AFF0221034837
:102F500001F044FB0BB000BD20090020480900200F
:102F60002DE9F0411A4A1B4D002002F1240302F121
:102F7000100600EB800101EBC0012944145C0F79BD
:102F800064F306070F7156F82040C1F8054053F866
:102F90002040401CC0B2C1F809400528E9D309F01F
:102FA000B9F8002404EB840000EBC4002844C17885
:102FB000552906D1D0F809201AB156F8240000216D
:102FC0009047641CE4B2052CECD3BDE8F08100000E
:102FD0000C020020D47A00202DE9F04105F0D4F84D
:102FE000154E002404EB840000EBC407BD192879BA
:102FF00000061AD5D5F80920BAB11048012150F8B9
:103000002400904788B10E4804EB4401425C084418
:10301000F255417869708078A8705520E870287959
:1030200020F08000287109F0BBF8641CE4B2052C84
:10303000D8D3BDE8F0810000D47A00201C02002023
:10304000D6FE000870B52DED068B05F037F9874CDC
:1030500002282CD08649081F05F042F98548B0F9AE
:10306000A00000EE100AB8EEC00ADFED830A20EEE1
:10307000208A05F023F97E4D2D1F20B305F01EF99F
:10308000012875D17D48D0ED000A9FED7D0AF5EE4F
:10309000C00AF1EE10FA71D17A48D0ED000AF5EECF
:1030A000C00AF1EE10FA69D1A07DE8B366E094F8A9
:1030B0002300012801D102F019FEBDEC068BBDE80A
:1030C000704000F0EBB99FED708AB0EE480A00F056
:1030D000E3F885ED020A94F8260030B1207F78B934
:1030E000607FD0B985ED028A17E0217F41B138B900
:1030F000607F90B99FED650A00F0CEF885ED020A79
:10310000607F50B194F8260038B9207F28B99FED30
:10311000600A00F0C1F885ED020A95ED021AB5EEDD
:10312000C01AF1EE10FA00E023E00DD0D5ED000A50
:103130009FED580A60EE800AC5ED000AD5ED010A40
:1031400020EE800A85ED010A94F8240068B1D5EDDF
:10315000000AB6EE000A60EE800AC5ED000AD5ED61
:10316000010A20EE800A85ED010A95EC020A74E05E
:1031700079E0E07D10B9207E00B9607E85ED020A1D
:1031800018EE100A0CF0DEFB41EC100B07F0C0FD4E
:10319000B0EE409AF0EE609A68680CF0D3FB53EC06
:1031A000192B0BF005FF41EC190B18EE100A0CF06F
:1031B000C9FB41EC100B07F047FDB0EE40AAF0EE62
:1031C00060AA28680CF0BEFB53EC1A2B0BF0F0FE43
:1031D00053EC192B0BF06CFB0BF008FA08EE900A7D
:1031E00018EE100A0CF0AEFB41EC100B07F02CFDB2
:1031F000B0EE401AF0EE601AB0EE419AF0EE619A2D
:1032000068680CF09FFB53EC192B0BF0D1FE41ECDE
:10321000190B18EE100A0CF095FB41EC100B07F09F
:1032200077FDB0EE40AA95ED000AF0EE60AAB1EE8F
:10323000400A10EE100A0CF085FB53EC1A2B0BF031
:10324000B7FE53EC192B0BF033FB0BF0CFF900EE6C
:10325000900A95ED021AB0EE680ABDEC068BBDE847
:10326000704000F02FB9BDEC068B70BD9C73002040
:103270004C02002014710020DB0F493AE8000020C6
:103280000000FAC5EC0000200000000000007AC435
:1032900000007A449A99193F164810B5D0F8A80052
:1032A000DFED151A00F1300161291FD300EE900AFD
:1032B000124C1348B8EEE02A616AF0EE400A01EEC3
:1032C000101AB0EE420A00F083FE0D48D0ED0B0A52
:1032D000606A00EE100A0A48303004F073FE0848B5
:1032E000303090ED080AB1EE400A10BDB0EE610A30
:1032F00010BD00001471002000000000B87900200B
:10330000387C002070B51C4D00242DED028B9FED04
:103310001B8ADFED1B8A00BF04EBC40005EBC00075
:10332000F0EE480AB0EE680A164A002104F0FEFEEC
:10333000641CE4B2042CEFD3B1EE081A9FED128A9C
:10334000DFED128ADFED120AB0EE482AF0EE681ABD
:103350009FED100A104800F089FEF0EE480AB0EE2A
:10336000680ABDEC028B0021064ABDE870400A489D
:103370000C32303004F0DABE187B002000E8004741
:1033800000007A45E8FE000800409C46000000006E
:10339000CDCC4C3E66669641387C002070B53C4CE6
:1033A0002DED048BB0EE608AF0EE400AB4F9000017
:1033B000F0EE618A00EE100AB0EE419A3548B8EEA0
:1033C000C00A04F0FFFDB4F90200F0EE480A00EE76
:1033D000100A3048B8EEC00A483004F0F3FDB4F9E2
:1033E0000400F0EE490A00EE100A2A48B8EEC00ABE
:1033F000903004F0E7FDB4F90600F0EE680A00EE44
:10340000100A2448B8EEC00AD83004F0DBFD224D83
:10341000002400BF04EBC40005EB8000807A502834
:1034200001D900F03BF8641CE4B2042CF2D3194C2F
:1034300094ED080ABDEEC00A10EE100A01B2012098
:10344000FFF714FD94ED1A0ABDEEC00A10EE100A43
:1034500001B20220FFF70AFD94ED2C0ABDEEC00A6E
:1034600010EE100A01B20320FFF700FD94ED3E0AB2
:10347000BDEEC00A10EE100A01B20420FFF7F6FC00
:10348000BDEC048B4FF40070BDE87040FFF71EBD2B
:1034900028010020187B00203472002010B5084855
:1034A00004F024FE0648483004F020FE0448903022
:1034B00004F01CFE0248BDE81040D83004F016BEEF
:1034C000187B0020F1EE401A9FED0C2A70EE202AA6
:1034D00030EE603A71EEE03A70EEC01A41EE422AE8
:1034E00001EE423A41EE423A41EE421AB0EE620A31
:1034F000F0EE430AB0EE631AFFF750BF295C8FBEAF
:1035000010480188A1F5B671B1F5A56F17D84288AA
:1035100040F294618A4212D84FF4B6739A420ED3A5
:1035200082888A420BD89A4209D3C2888A4206D836
:103530009A4204D3017A11B1407A002801D106F0F1
:10354000AFBA70479C730020014801F027BD00000E
:10355000F40D0020014801F021BD0000340D0020D1
:10356000014801F01BBD0000940D0020014801F04E
:1035700015BD0000540E00202DE9F05FAB48AC4BA8
:10358000AC4CC06CAA4DAB4EA94F0068A849DFF8FF
:10359000A492DFF89CA2DFF89CB2DFF894E2A54A7F
:1035A000483B603418351836303F09F178090AF184
:1035B000300A4FF4006C0BF1300BAEF1180E88425C
:1035C00023D99B49543926E0A84233D14FF0200833
:1035D0000AE0504535D1E04606E000BF4FF4001840
:1035E00002E000BF4FF0006811EA080F7CD090495C
:1035F000884253D9904205D0984203D0A04201D0CE
:10360000A8422FD14FF0200C45E08A49A8318842CA
:1036100003D987495839096805E086494831884205
:103620008549F8D949689042D0D09842CED0A0427E
:10363000CCD0C9E7B042CED0B842CCD04845CAD0F1
:10364000C7E75845CAD07045C8D0DFF8E88108F10F
:1036500090084045C2D0DFF8D88108F148084045BD
:10366000C0D1BBE7B04216D0B84214D0484512D002
:10367000504510D0584509D0704507D06D4990315C
:10368000884203D06A494831884202D14FF4001C75
:1036900001E04FF0006C66484C382AE06549A831DB
:1036A000884229D9904205D0984203D0A04201D047
:1036B000A84202D14FF0200C19E0B04217D0B84216
:1036C00015D0484513D0504511D0584509D0704504
:1036D00007D058499031884203D055494831884233
:1036E00003D14FF4001C02E09DE04FF0006C504805
:1036F0005038C0F800C052E04E494831884227D9BE
:10370000904205D0984203D0A04201D0A84202D1F5
:103710004FF0200C18E0B04216D0B84214D0484503
:1037200012D0504510D0584509D0704507D04149B6
:103730009031884203D03E494831884202D14FF44B
:10374000001C01E04FF0006C3B48C0F80CC026E0C4
:10375000904205D0984203D0A04201D0A84202D1A5
:103760004FF0200C18E0B04216D0B84214D04845B3
:1037700012D0504510D0584509D0704507D02D497A
:103780009031884203D02A494831884202D14FF40F
:10379000001C01E04FF0006C2748C0F808C0274C1F
:1037A000207880070CD5207820F002002070207847
:1037B00040F00400207001221146214801F04AFF28
:1037C0006078204D80070CD5607820F00200607092
:1037D000607840F00400607001221021284601F05A
:1037E00039FFA07880070CD5A07820F00200A070E7
:1037F000A07840F00400A07001221021284601F0BA
:1038000029FF08F0B9FF207840070CD5207820F078
:1038100004002070207840F0080020700A480168F9
:1038200041F001010160BDE8F09F0000D4090020D3
:1038300058640240106002400060024030010020E5
:103840000004024000000240103C0140014801F029
:10385000A5BB00008C0A0020014801F09FBB0000BE
:10386000D40C002001681823CAB2103AB2FBF3F25C
:10387000054B6FF30901032A9B5CC36500D9091D41
:10388000816508467047000054FE000810B50146E7
:1038900000208B698A6A4FF0C07453B1B3F5005FA2
:1038A00015D072B1012A0CD0022A0AD0032A09D1FC
:1038B00004E01AB1012A06D0022A03D1C96AC9015B
:1038C00000D5012010BDC96AA142FAD010BD002A5E
:1038D000F7D0012AF2D0022AF3D0032AF3D010BD88
:1038E00030B50468256825F4802525600468636088
:1038F0008368402B036803D099600068C26030BDC4
:103900009A600068C16030BD10B50B490C482DEDC0
:10391000028B9FED0A8AB0EE480A08F0F8FCB0EE80
:10392000480A05490648091DBDEC028B1430BDE864
:10393000104008F0ECBC000074FE00086F12033B5E
:10394000CC73002010B5040071D001F089FE384915
:10395000C8622088C0F30A0088806078A278C00816
:1039600040EA4210C0F30A00C880A078E2788009DB
:1039700040EA8200227940EA8220C0F30A0021F85E
:10398000020B20796279400840EAC210C0F30A00B5
:1039900021F8070B6079C0F3011001F80109607983
:1039A00080090870E0884880208988806089C88004
:1039B000087A4872207B0872607B8872E08988816F
:1039C00000F001028A73C0F34002CA73C0F38002A0
:1039D0000A74C0F3C0024A74C0F300128A74C0F3C0
:1039E0004012CA74C0F380120A75C0F3C0124A753F
:1039F000CA7D8A75C0F30022CA75C0F340220A76D8
:103A0000C0F380224A76C0F3C0228A76C0F3003227
:103A1000CA76C0F340320A77C0F380324A77C00BCF
:103A20008877208A0884BDE81040FFF769BD10BD83
:103A30009C73002070470000074808B5B0F9FC10DF
:103A40000091B0F9D830B0F9B420B0F9901003A0CB
:103A500009F0AEFD08BD00001471002041353D2580
:103A600064202041363D2564202041373D256420D7
:103A70002041383D25640D0A000000000648016819
:103A80000648B1FBF0F2064802704FF47A72B1FBBF
:103A9000F2F14160704700003400002040420F0006
:103AA0000C010020012001F0D1BC082001F0CEBCA7
:103AB000102001F0CBBC202001F0C8BC72B6FEE79C
:103AC000002229B101291AD002291BD04FF44072DB
:103AD0000E490B6823F440730B600B6813430B60B3
:103AE0000A6822F0F8020A600A68022303EBC000A9
:103AF00002430A60086840F48030086070474FF461
:103B00008072E5E74FF40072E2E70000103C0240EB
:103B10001348016889050FD5016821F4007101601F
:103B2000016841F400610160016821F400610160F5
:103B3000016841F400710160016849050FD5016811
:103B400021F480610160016841F4805101600168E5
:103B500021F480510160016841F480610160704787
:103B6000003C024008490A6822F440720A600A6870
:103B700042F004020A600A684FF4803343EA0020EE
:103B800002430A6070470000103C0240064A136876
:103B900023F44073136013681360136843F0010348
:103BA0001360017070470000103C0240094910B5D5
:103BB0000C6824F440740C600C6844F440740C608D
:103BC0000C6844F001040C600260BFF36F8F436027
:103BD00010BD0000103C0240074A136823F44073F4
:103BE0001360136843F480731360136843F0010398
:103BF0001360018070470000103C0240074A1368C0
:103C000023F440731360136843F400731360136864
:103C100043F001031360016070470000103C024054
:103C200017490868C206174805D5C26942F0100254
:103C3000C26110220A600A68920605D5C26942F084
:103C40000802C26120220A600A68520605D5C269CC
:103C500042F00402C26140220A600A68120605D5D9
:103C6000C26942F00202C26180220A600A689207B9
:103C700005D5C26942F02002C26102200860704787
:103C80000C3C0240B40E002070B5114904460020DF
:103C9000C86101F0E5FC06460E4D09E0601C07D046
:103CA00024B101F0DDFC801BA04201D9032070BDCE
:103CB0002868C003F2D42868C00701D0012028601A
:103CC000286810F0F200F2D0FFF7AAFF012070BDC3
:103CD000B40E00200C3C024010B5124CF0EE400A2D
:103CE000114894ED440AB8EEC00A04F06BF90E488E
:103CF000D0ED080AB4F9000100EE100A0A48B8EE47
:103D0000C00A483004F05EF90748483090ED080AD0
:103D1000BDE81040BDEEC00A10EE100A01B2082046
:103D2000FFF756B814710020407D00202DE9F047C0
:103D30002DED028B04F0C2FA6B496C4E6C4D0127DD
:103D40006C4C4FF000084FF00209022801D10878AE
:103D500018B10878012818D02BE0308AB5F9042072
:103D6000A0F5C8718A4224DAB5F92810C0F5C870E8
:103D700081421EDD9FED600A00F008F900F0F6F8C0
:103D800084F8019084F80080A7E0207888B9308A10
:103D9000B5F90410A0F5C87291420ADDB5F92810F2
:103DA000C0F5C870814204DA4FF4FA7008F061FE81
:103DB000277004F083FA022877D02078012874D184
:103DC000308AB5F90420A0F5C8718A426DDDB5F9D5
:103DD0002810C0F5C870814267DA484EB07CD0B177
:103DE000474E4849B069884212DA474988420FD2A3
:103DF0004649F06988420BDA4549884208D201F009
:103E00002FFC316A401A642802D29FED420A62E018
:103E100094ED020A55E094ED020AB8EEC00AFFF7ED
:103E20005BFFA07870B9307CA0B1707C60B9D5F828
:103E30001001A0F5104000EE100AA060B8EEC00A14
:103E4000FFF74AFF307C28B1A0883C280CD2401CE8
:103E5000A08009E0A4F8048084F8028094ED020AAE
:103E6000B8EEC00AFFF738FFA0889FED2B8A3C28E8
:103E700012D094ED020AB8EEC00AFFF72DFF707A57
:103E8000022813D0012824D0032829D1A0780028A3
:103E900026D184F80190BBE7A770B0EE480A00F085
:103EA00075F8D5F81001A060E9E719E060780228FC
:103EB000AED16770D5F81001A0F5104000EE100AE1
:103EC000A060BDEC028BB8EEC00ABDE8F047FFF77A
:103ED00003BFB0EE480A00F059F8D5F81001A06011
:103EE000BDEC028BBDE8F0875402002088780020EA
:103EF0001471002058020020000000009C73002074
:103F0000D0800020CDCC4C3FCDCC4CBF9A991940ED
:103F10009A9919C000401CC60080BBC510B5DFEDE2
:103F20000E0A0F4A00212DED028B9FED0C8A0D48E1
:103F3000B0EE480A04F0FAF8B0EE480A084A094818
:103F40000C32BDEC028B0021BDE81040DFED060A0B
:103F5000483004F0EBB800000000FA440000000014
:103F600018FF0008407D002000401C4610B50021CD
:103F70000820FEF72DFF044804F0B8F80248BDE819
:103F80001040483004F0B2B8407D00200E4810B513
:103F9000B0F90001F0EE400A00EE100A0B48B8EE4E
:103FA000C00A04F00FF8094890ED080ABDEEC00AF7
:103FB00010EE100A01B20820FEF70AFFBDE810401B
:103FC00040F2FF10FEF734BF14710020887D0020FE
:103FD00010B5B0EE402A9FED240A040043D084EDD2
:103FE000042A30EEC22AC4ED030AB4EEE12AF1EE4F
:103FF00010FA08D2F1EE610AB4EEE02AF1EE10FAFE
:1040000001DDB0EE402A84ED052A94ED000A04F1AA
:10401000240020EE020A84ED080A94ED090AD4ED8A
:10402000010A00EE820A84ED090A94ED020A20EEEC
:10403000010A84ED0A0A94ED070A07F01EFB94EDCD
:10404000080AD4ED090A04F12C0030EE200AD4ED60
:104050000A0A30EE200A84ED0B0A94ED060A07F0F6
:104060000CFB94ED0B0A10BD0000000000280BD0E3
:1040700080EC030A9FED050A80ED050A80ED040A35
:10408000C0ED071A80ED062A70470000000000000E
:1040900010B558B1084C491E0BD310F8013B5340E2
:1040A000DBB234F8133083EA1222F4E74FF6FF70E4
:1040B00010BD104610BD00003000010810B5054CC1
:1040C00004E000BF10F8013B5340E25C491EF9D206
:1040D000104610BD30FF0008F0B52DED028B83B007
:1040E00004F0ECF8022823D0694601A804F052F944
:1040F0002B4F2C4D9FED2C8AB87C2C4EDFED2C8A5B
:104100002C4CC0B100F0BAF9A068A84201DD84EDE2
:10411000028AA068B04201D9C4ED028AD4ED020A35
:1041200094ED010A00F0E4F903B0BDEC028BF0BDA0
:1041300000F072F9F8E794ED020ADDED010A30EEC5
:10414000200A84ED020A04F0B9F820B104F0B6F8B0
:1041500001280BD012E01848D0F8A80000F59660AE
:10416000B0F5166F02D997F8260038B194ED010A20
:10417000DDED000A30EE600A84ED010AA068A84275
:1041800001DD84ED028AA068B04201D9C4ED028A43
:10419000D4ED020A94ED010A00F0B4F8C4E700007F
:1041A0009C730020ABAA2A44ABAA2A44898888C3FE
:1041B000898888C3140100201471002010B52DEDEA
:1041C000068B9FED428A424880ED018A80ED028A8B
:1041D0009FED402AF0EE481ADFED3F9AF0EE480AD4
:1041E0009FED3E0AB0EE691A3D48FFF73FFFDFED55
:1041F0003D8A9FED3D9A3A48F0EE680AB0EE490AD2
:104200003A4A0021303003F091FF9FED39AA34483B
:10421000F0EE481AB0EE4A2AB0EE691AF0EE480AFB
:10422000B0EE000A7830FFF721FF304A2C48F0EE5C
:10423000680AB0EE490A0C320021A83003F076FF7C
:104240002748B0EE4A2AF0EE481AB0EE001AF0EE17
:10425000480A9FED280AF030FFF708FF234AF0EEE6
:10426000680AB0EE490A18320021234803F05EFFC5
:104270009FED220A2048B0EE4A2AF0EE481AB0EE2E
:10428000401ADFED1F0A4830FFF7F0FE174A1A48C0
:10429000F0EE680AB0EE490A24320021783003F0CB
:1042A00045FF1548F0EE000AB7EE000AC03003F0F3
:1042B00049FABDEC068BF0EE000AB7EE000A0E4894
:1042C000BDE81040F03003F03DBA000000000000EF
:1042D0001401002000006144CDCC4C3E9A99193F56
:1042E000F47500200060EA4600409C457CFE000812
:1042F0000000C843CDCC4C3F147700209A99993EDA
:104300008FC2F53D10B5344C2DED048BF0EE608A74
:10431000F0EE400A606A9FED318A01EE100AA06952
:104320009FED2F9A00EE100A2E48F0EE491A20EE6B
:10433000080AFFF74DFE2B48D0ED0B0A606A00EE2D
:10434000100A2848303003F03DFEE069F0EE491ACB
:1043500001EE100AA068F0EE680A00EE100A21488B
:1043600020EE080A7830FFF733FE1E487830D0ED93
:104370000B0AE06900EE100A1A48A83003F022FE8A
:10438000194890F89A10502903D890F8BE00502888
:1043900001D900F041F81348303090ED080ABDEE25
:1043A000C00A10EE100A01B20520FEF711FD0D48FB
:1043B000A83090ED080ABDEEC00A10EE100A404287
:1043C00001B20620FEF704FDBDEC048B40F2FF10A5
:1043D000BDE81040FEF72CBDB8790020610BB64156
:1043E00000000000F47500201471002000280FD098
:1043F0009FED080A80ED040A80ED030A80ED050AAE
:1044000080ED0A0A80ED090A80ED080A80ED0B0AAA
:10441000704700000000000010B500210520FEF7E5
:10442000D7FC00210620FEF7D3FC40F2FF10FEF778
:10443000FFFC1048FFF7DAFF0E48303003F056FE5D
:104440000C487830FFF7D2FF0A48A83003F04EFE40
:104450000848F030FFF7CAFF074803F047FE064858
:104460004830FFF7C3FF0448BDE81040783003F040
:104470003DBE0000F47500201477002070B5174D84
:10448000174C2878002827D00020287095ED060AC0
:10449000144803F06FF9134884ED030A95ED070AF9
:1044A000303003F067F9104884ED040A94ED031AE4
:1044B000816900EE901A30EEC11ADFED0C0A21EE90
:1044C000201A84ED011A806801EE100A31EE000A0C
:1044D00020EE200A84ED020A70BD0000D08000208A
:1044E00014010020D4770020B8790020610BB64178
:1044F00010B5354C2DED048BF0EE608AF0EE400ADD
:10450000606A9FED328A00EE100AA0699FED309A32
:10451000B1EE401A00EE100AF0EE491A2D4820EED6
:10452000080AFFF755FD2B48D0ED0B0A606A00EE34
:10453000100A2848303003F045FDE069F0EE491AD2
:1045400001EE100AA068F0EE680A00EE100A214899
:1045500020EE080A7830FFF73BFD1E487830D0ED9A
:104560000B0AE06900EE100A1A48A83003F02AFD91
:10457000194890F89A10502903D890F8BE00502896
:1045800001D9FFF749FF1348303090ED080ABDEE1E
:10459000C00A10EE100A01B20520FEF719FC0D4802
:1045A000A83090ED080ABDEEC00A10EE100A404295
:1045B00001B20620FEF70CFCBDEC048B40F2FF10AC
:1045C000BDE81040FEF734BCB8790020610BB6415D
:1045D00000000000E47600201471002090F82020F4
:1045E000012A07D0022A05D0416A41F480214162A4
:1045F00001207047006842690A4342610020704709
:10460000F0B590F820500468A468012D05D0022D63
:1046100003D0416A41F480215DE014F0406F01D184
:10462000E50055D5C4F30164022C03D9416A41F475
:10463000000150E00125A5401D608D684FF4C07356
:104640009DB1CE6835434E6845EAC605066803EB62
:104650000417F5514FF4C275076805EB04150E6990
:104660007E51097D012905D009E00E88CD6845EA13
:104670004655EBE701684E5946F480764E51117964
:10468000D579567941EA056195792D0445EA0625E3
:1046900029434FF4C676056806EB0416A951117834
:1046A000D57841EA0561957852782D0445EA0222D1
:1046B00011434FF4C475026805EB041551510068AD
:1046C00003EB0411425842F0010242500020F0BDB9
:1046D000416A41F4001141620120F0BD10B590F82B
:1046E0002020012A07D0022A05D0416A41F4802106
:1046F0004162012010BD3B48D0F8002242F0010287
:10470000C0F80022D0F8002222F47C52C0F8002227
:10471000D0F800224B6A42EA0322C0F800220A7D48
:1047200002F01F0301229A40D0F81C329343C0F8D4
:104730001C32CB69B3B9D0F80C329343C0F80C32B9
:104740008C894B6864F31F434C6900EBC404C4F8C4
:1047500040320C890B6864F31F434C6900EBC404BE
:10476000C4F84432CB69012B16D1D0F80C32134374
:10477000C0F80C320C884B6864F31F434C6900EBA3
:10478000C404C4F840320C89CB6864F31F434C69FD
:1047900000EBC404C4F844328B69002BD0F8043217
:1047A0000ED01343C0F804320B69002BD0F814323A
:1047B00008D01343C0F81432096A012904D008E074
:1047C0009343EFE79343F5E7D0F81C121143C0F889
:1047D0001C12D0F8001221F00101C0F800120020D4
:1047E00010BD000000640040704730B590F82040D4
:1047F000012C05D0022C03D0416A41F480215DE0F8
:104800000468002955D02469A40754D04FF4D87403
:10481000056804EB01142D5915F004059560056831
:104820002D594ED0ED08556005682C5904F002044E
:10483000D4604FF4DA74056804EB01142D5905F0C7
:104840000F05156105682D59C5F3072595610568A4
:104850002C59240C54614FF4DC72046802EB0112F1
:10486000A4581C700468A458240A5C700468A458F6
:10487000240C9C700468A258120EDA704FF4DE7299
:10488000046802EB0112A4581C710468A458240A9D
:104890005C710468A458240C9C710468A258120E20
:1048A000DA71006881B1016941F0200101610020E5
:1048B00030BDE468A8E7416A41F40011416201207B
:1048C00030BD6D0D1560AFE7C16841F02001C160DA
:1048D000EDE72DE9F05F0546006800244669D0F851
:1048E00004908768D0F80CB0D0F810A0D0F81880E9
:1048F000F10748D0F90714D001218160B80703D52A
:10490000284600F0EAFA0CE0780702D54FF400647C
:1049100007E0380702D54FF4805402E0284600F043
:10492000DBFAF80516D529684FF480708860B80561
:1049300003D5284600F0D3FA0CE0780502D544F4FC
:10494000005407E0380502D544F4804402E02846CC
:1049500000F0C4FAF80316D529684FF48030886057
:10496000B80303D5284600F0BCFA0CE0780302D562
:1049700044F4004407E0380302D544F4803402E0F4
:10498000284600F0ADFA300707D55FEACB6004D5C2
:104990002968102044F40074C86070074FF00807BD
:1049A00007D55FEA0B7004D52868C760284600F079
:1049B00099F9B00706D52868C068800702D0284654
:1049C00000F092F9700607D55FEACA6004D529683D
:1049D000102044F480640861B00607D55FEA0A70CD
:1049E00004D528680761284600F046FAF00606D587
:1049F00028680069800702D0284600F03EFAB0031C
:104A000008D55FEAC96005D52968102048602846A6
:104A100000F034FAF00307D55FEA097004D528687E
:104A20004760284600F05EFA300446D55FEA4970D8
:104A300040D5F00504D55FEAC87001D044F0010408
:104A4000B00504D55FEA887001D544F00204700512
:104A500004D55FEA487001D544F00404300529D537
:104A600018F0700F26D008F07000402815D006DC32
:104A7000102809D020280AD0302816D10AE0502862
:104A80000ED0602811D10EE044F008040DE044F08F
:104A900010040AE044F0200407E044F0400404E07D
:104AA00044F0800401E044F480742868816921F0B6
:104AB00070018161296804204860002C05D0686A73
:104AC000204368622846FFF78FFEBDE8F09F70B56F
:104AD000040003D094F8200010B104E0012070BD60
:104AE000204600F081F82068016841F00101016072
:104AF00000F0B6FD0546052604E000F0B1FD401BC0
:104B00000A2811D820684068C007F6D020680168DC
:104B100021F00201016000F0A3FD05460BE000F06A
:104B20009FFD401B0A2806D9606A40F4003060628D
:104B300084F82060D2E7206840688007EFD4207EA8
:104B40000128206801683DD021F080010160607E6D
:104B500001282068016838D021F040010160A07E62
:104B600001282068016833D021F020010160E07E37
:104B70000128206801682ED041F010010160207FDB
:104B800001282068016829D021F008010160607FB8
:104B900001282068016824D021F004010160D4E9D3
:104BA00002010843D4E90412114308436168491E15
:104BB00008432168C86100206062012084F8200059
:104BC000002070BD41F08001C0E741F04001C5E721
:104BD00041F02001CAE721F01001CFE741F00801C0
:104BE000D4E741F00401D9E7F0B587B004461421B9
:104BF0006846FBF7ADFD364B3648DFF8D0E0196864
:104C0000D4F800C0334A03250226092710300024B7
:104C1000491CF44522D11960012907D1016841F0EE
:104C200000710160006800F000700590106840F0AD
:104C3000080010601068CDE9005600F00800CDE9CA
:104C4000047069462448CDE9024500F00BFC0022BF
:104C50000521142001F018F8142032E0DFF87CE080
:104C6000F44530D1D0F800C04CF0806CC0F800C0E2
:104C7000D0F800C001290CF0806CCDF814C0196088
:104C800007D1016841F000710160006800F0007018
:104C90000590106840F002001060106802AB00F050
:104CA000020005906020CDE9000683E8B000694667
:104CB0000B4800F0D7FB00220521402000F0E4FF64
:104CC000402000F0D3FF07B0F0BD000000640040BA
:104CD0002400002030380240000C024000680040F0
:104CE000000402407047000030B5604989B0884236
:104CF00007AB6A464FF000017DD15C48FFF775FDB8
:104D00000098411ECAB25A49A0F50073013B34D045
:104D1000A0F50073023B30D0A0F50073033B2CD00C
:104D2000B0F5017F29D0A0F50073053B38D0A0F580
:104D30000073063B34D0A0F50073073B30D0B0F5CC
:104D4000027F2DD002EBC20201EB820031F822304B
:104D500043808388C380BDF81C305BBA21F82230C1
:104D6000BDF81E1049BA8180BDF8201049BA0181F2
:104D70009DF82210817209B030BD02EBC20201EB36
:104D800082008388C380BDF81E305BBA838031F80F
:104D900022304380BDF81C305BBA21F82230E3E7B3
:104DA00002EBC20201EB820041F204048388C3805B
:104DB000BDF81E305BBA838031F822304380BDF8E5
:104DC0001C305BBA21F82230BDF820305BBA038179
:104DD0009DF82230837231F92250C5F5C853A342A1
:104DE00001DBC5F56453836131F92230C3F5C85541
:104DF000002D04D400E02EE0C3F5C85301E0C3F554
:104E00006453038231F92230B0F902505B1BA34294
:104E100002DD83895B1E05E041F20404E34202DA0D
:104E200083895B1C838131F92230B0F90C4003EB9C
:104E30004433C4691B1B436190F82030002B9AD186
:104E4000012380F820304369C36131F92210C1F594
:104E5000C851C1818FE70748FFF7C7FC00288AD1F6
:104E600007A9684603F050FB85E7000020090020F1
:104E700014710020480900207047704770470000F7
:104E800070B5044690F82000012804D0606A40F410
:104E90000020606218E0022084F820002068016889
:104EA00021F00101016000F0DBFB05460EE000BFD0
:104EB00000F0D6FB401B0A2808D9606A40F4003095
:104EC0006062052084F82000012070BD20684068E1
:104ED000C007EDD1606270BD704770477047704782
:104EE0007047704770472DE9F0410446876D00F028
:104EF000B7FB064694F835000025022806D080202E
:104F0000606584F834500120BDE8F08120680168B4
:104F100021F0160101602068416921F080014161A2
:104F2000206C08B9A06C20B12068016821F008014C
:104F300001602068016821F0010101600CE000F0CF
:104F40008FFB801B052807D920206065032084F88B
:104F5000350084F83450D7E720680068C007EED1E8
:104F600094F85C103F208840B860012084F8350038
:104F700084F834500020C7E790F83510022903D098
:104F80008021416501207047052180F835100068B7
:104F9000016821F001010160002070472DE9F8430C
:104FA00004464FF00009CDF8009063484FF41651C5
:104FB000A56D0068B0FBF1F72E6894F85C1008202E
:104FC00000FA01F131420FD021680A6852070BD56F
:104FD0000A6822F004020A6094F85C108840A86015
:104FE000606D40F00100606594F85C104FF00108BE
:104FF00008FA01F0304208D021684969090604D551
:10500000A860606D40F00200606594F85C100420B8
:105010008840304208D021680968890704D5A86013
:10502000606D40F00400606594F85C1010208840CA
:10503000304218D021680968090714D5A860206893
:105040000168490304D50068000308D5A16C07E096
:105050000168C90503D4016821F008010160216CD1
:1050600009B12046884794F85C10202088403042DF
:1050700031D021680968C9062DD5A86094F835009B
:1050800005282068016806D0490347D50068000359
:105090001DD4616C1CE021F016010160206841699B
:1050A00021F080014161206C08B9A06C20B120681A
:1050B000016821F00801016094F85C103F208840ED
:1050C000A86084F8358084F83490216D1FE0E16B8E
:1050D00009B120468847606D00282BD0606DC0075D
:1050E00014D0052084F835002068016821F0010102
:1050F00001600098401C0090B84203D82068006806
:10510000C007F6D184F8358084F83490E16C00292A
:1051100010D001B02046BDE8F04308470168C9053A
:10512000D5D4016821F01001016084F8358084F83D
:105130003490CCE7BDE8F883340000202DE9F0413D
:10514000044600F08DFA06465CB1022084F8350072
:10515000002584F834502068016821F001010160C5
:105160000DE00120BDE8F08100F07AFA801B0528EF
:1051700005D920206065032084F83500F2E7206817
:105180000068C007F0D12268116820480140D4E9C6
:1051900001031843D4E903363343184363691843C2
:1051A000A3691843E3691843236A18430843616AF3
:1051B000042903D1D4E90B13194308431060206874
:1051C0004069666A20F0070130460E430127042833
:1051D0000CD1A06A0643E06A40B12046FEF756FBB8
:1051E00020B14020606584F83570BAE720684661D8
:1051F0002046FEF737FB94F85C203F219140816008
:10520000656584F835700020ACE700003F8010F041
:105210002DE9F0410446866D90F834000025012800
:105220000DD0012084F8340094F835700020012F4F
:1052300007D084F8340002252846BDE8F08102201A
:10524000FBE7022784F8357060652046FEF748FBCF
:1052500094F85C103F208840B0602068016841F0FD
:1052600016010160206C20B12068016841F008013E
:1052700001602068016841F001010160DCE7000085
:105280002DE9F047044622480F46017E01290AD045
:105290000121804601764CF250394846FEF7F4FC75
:1052A000020003D02FE00220BDE8F0874FF0FF306E
:1052B00038602068174D012801D0A6681CE0207CCA
:1052C0006168FEF74FFC4846FEF7DEFC02462868A0
:1052D00020F00400286014E0217C3046FEF7F0FB4B
:1052E0004846FEF7D1FC0200286820F0FA0028604A
:1052F00001D03E6005E0761CD4E902100844B042BB
:10530000EAD8FEF705FC002188F818101046CBE714
:10531000B40E0020103C02400348016841F00041F7
:105320000160002070470000103C02402DE9F0476A
:105330001B4E05461446307E1F468946012808D07C
:10534000012030764CF250384046FEF79DFC18B1F3
:1053500014E00220BDE8F0879DB1012D16D0022D8A
:1053600019D022463B464846FEF720FC4046FEF751
:105370008BFC0C490A6822F001020A600021317698
:10538000E8E7E1B24846FEF701FCEFE7A1B2484684
:10539000FEF722FCEAE721464846FEF72FFCE5E748
:1053A000B40E0020103C0240074900200A68002A81
:1053B00009DA054A054B0C3A1360054B136009687E
:1053C000002900DA01207047103C024023016745A4
:1053D000AB89EFCD10B51B4C10281AD0202821D056
:1053E00008282AD0012813D108F002FF01280FD085
:1053F00004F10C01206908F061FAE068002807D088
:1054000011494FF080500860BFF34F8FBFF36F8F8B
:1054100010BD607840F001006070A07840F001009D
:10542000A07003E0207840F001002070207900286F
:10543000EED0BDE8104007F09FB9E07840F00100E1
:10544000E07010BD3001002004ED00E0044910B50B
:105450000A68024202D00860FFF7BCFF10BD0000DE
:10546000143C01402DE9F84FDFF8BCA100220125D2
:105470000AF1040B03264FF00F090BF1040E00BFD5
:105480000B6805FA02F42340A34270D10F7907F0AC
:105490000307012F01D0022F16D187684FEA420877
:1054A00006FA08FC27EA0C07D1F80CC00CFA08FC35
:1054B0004CEA070CC0F808C04768A7430C79C4F34E
:1054C000001494403C4344600C79E443A4070AD0A0
:1054D000C4684FEA420C06FA0CF7BC438F6807FA1F
:1054E0000CF72743C7600C7904F00304022C12D197
:1054F000D40800EB840CDCF820405707FF0E09FAB3
:1055000007F824EA0804D1F8108008FA07F848EAF6
:105510000408CCF8208004684FEA420C06FA0CF725
:10552000BC430F7907F0030707FA0CF7274307601E
:105530004C6814F4403F70D03C4C276847F48047D7
:105540002760246822F0030704F480440094384C58
:1055500007EB040CDCF8084897074FEA177809FABC
:1055600008F7BC43334FB84202D1002724E054E08F
:10557000314FB84201D101271EE0304FB84201D16E
:10558000022719E02E4FB84201D1032714E02D4F16
:10559000B84201D104270FE02B4FB84201D10527B3
:1055A0000AE02A4FB84201D1062705E0284FB84249
:1055B00001D1072700E0082707FA08F72743CCF8AE
:1055C0000878DAF800405746D1F804C09C435FEAF7
:1055D000CC3C00D51C433C60DBF800405F46D1F872
:1055E00004C09C435FEA8C3C00D51C433C60DEF861
:1055F00000407746D1F804C09C435FEACC2C00D52C
:105600001C433C60084F0C373C68D1F804C09C43F5
:105610005FEA8C2C00D51C433C60521C102AFFF41E
:105620002FAFBDE8F88F0000003C01404438024035
:105630000030014000000240000402400008024027
:10564000000C02400010024000140240001802400A
:10565000001C02400AB1816170470904FBE70000A9
:1056600001488068704700002800002070B50400E1
:1056700025D094F83D00002520B984F83C50204600
:1056800000F04CFA242084F83D002068016821F0E5
:10569000010101602068016841F400410160206857
:1056A000016821F40041016000F0CCFB4D4A6168C3
:1056B000914201D84C4900E04C49884201D2012076
:1056C00070BD4B492368B0FBF1F15E6826F03F06E0
:1056D0000E435E606368934206D94FF49673594354
:1056E0004FF47A73B1FBF3F12368491C1E6A26F06C
:1056F0003F06314319626168914210D84900401E4B
:10570000B0FBF1F2521CC2F30B02042A01D20420B6
:1057100022E0B0FBF1F0401CC0F30B001CE0A268DB
:10572000F2B301EBC10303EB0116431EB3FBF6F327
:105730005B1C43F480431B0549D092B301EBC102CB
:1057400002EB0111401EB0FBF1F0401CC0F30B0056
:1057500040F4804040F400402168CA694CF6FF7371
:105760009A431043C861D4E90710014320680268D6
:1057700022F0C00211430160D4E903010143206813
:10578000826848F2FF339A4311438160D4E90501EE
:1057900008432168CA6822F0FF021043C86001E094
:1057A0000EE016E02068016841F001010160256407
:1057B000202084F83D00256384F83E50002070BD11
:1057C00001EB4106431EB3FBF6F35B1CB3E701207C
:1057D000C2E701EB4101401EB0FBF1F0401CC0F3F9
:1057E0000B00B7E7A086010080841E0000093D0081
:1057F00040420F002DE9FF4F83B09A46DDE9119733
:1058000093460446DDF84080FFF72AFF054694F8EA
:105810003D00202870D119230122714920460095AE
:1058200001F074FE0028F5D194F83C00012863D003
:10583000012084F83C0020680168C90703D1016891
:1058400041F0010101602068016821F400610160FC
:10585000222084F83D00402084F83E000026266483
:10586000C4F82480A4F82A90608D20855D48E06209
:10587000CDE9007553465A462046049901F04EFD85
:1058800000287CD1208DD0B1012821D002282068A9
:1058900024D0416980690090208D032869D80128AF
:1058A0002BD0514902283B464FF00002009559D0B9
:1058B0008846204601F02AFE002860D13CE020689E
:1058C000416981690091016841F40071016077E0EC
:1058D0002068016821F480610160F0E7016821F42B
:1058E000806101602068016841F400610160206806
:1058F00041698069009063E06FE02A46394620469E
:1059000001F083FE98BB20680069616A08704EE070
:105910002068016841F40071016020680069616AD3
:105920000870606A401C6062218D491E2185618D6E
:10593000491E6185216838E02068016821F4806192
:10594000016020680069616A0870606A401C6062DA
:10595000208D401E2085608D401E60853B460022C4
:1059600041460095204601F0D1FD00B9D0E706E0A0
:10597000FFE72A463946204601F047FE18B10120CC
:1059800007B0BDE8F08F20680069616A0870606A3E
:10599000401C6062218D491E2185618D491E6185F3
:1059A00021684A69D24352070AD409690170606AC2
:1059B000401C6062208D401E2085608D401E6085E9
:1059C000208D00287FF468AF202084F83D0084F803
:1059D0003E6084F83C600020D2E70220D0E700005F
:1059E000020010000000FFFF040001002DE9FF4F3E
:1059F00083B09A46DDE9119793460446DDF840806E
:105A0000FFF72EFE054694F83D0020287FD119238C
:105A1000012240492046009501F078FD002876D10A
:105A200094F83C00012872D0012084F83C002068E2
:105A30000168C90703D1016841F0010101602068D4
:105A4000016821F400610160212084F83D004020BC
:105A500084F83E0000262664C4F82480A4F82A9026
:105A6000608D20852C48E062CDE9007553465A468A
:105A70002046049901F0D0FC70B930E02A4639463E
:105A8000204601F0F5FD58B1206C042804D12068AF
:105A9000016841F400710160012007B0BDE8F08F9A
:105AA000606A216800780861606A401C6062218D2C
:105AB000491E89B22185628D521E62852268536912
:105AC000DB435B070BD469B100781061606A401C4E
:105AD0006062208D401E2085608D401E6085208D77
